{
	"data": {
		"bytecode": {
			"linkReferences": {},
			"object": "608060405234801561001057600080fd5b50610296806100206000396000f3fe608060405234801561001057600080fd5b506004361061002b5760003560e01c8063bd52634714610030575b600080fd5b61004a60048036038101906100459190610111565b61004c565b005b8082111561008f576040517f08c379a0000000000000000000000000000000000000000000000000000000008152600401610086906101d4565b60405180910390fd5b600082116100d2576040517f08c379a00000000000000000000000000000000000000000000000000000000081526004016100c990610240565b60405180910390fd5b5050565b600080fd5b6000819050919050565b6100ee816100db565b81146100f957600080fd5b50565b60008135905061010b816100e5565b92915050565b60008060408385031215610128576101276100d6565b5b6000610136858286016100fc565b9250506020610147858286016100fc565b9150509250929050565b600082825260208201905092915050565b7f596f752063616e2774207370656e64206d6f7265207468616e20796f7520686160008201527f76652e0000000000000000000000000000000000000000000000000000000000602082015250565b60006101be602383610151565b91506101c982610162565b604082019050919050565b600060208201905081810360008301526101ed816101b1565b9050919050565b7f416d6f756e742068617320746f206265206d6f7265207468616e20302e000000600082015250565b600061022a601d83610151565b9150610235826101f4565b602082019050919050565b600060208201905081810360008301526102598161021d565b905091905056fea2646970667358221220775fb941137e17dcb2d0ef2114c7855ee5d809a367b5a35bc22e18c8b480d60064736f6c63430008120033",
			"opcodes": "PUSH1 0x80 PUSH1 0x40 MSTORE CALLVALUE DUP1 ISZERO PUSH2 0x10 JUMPI PUSH1 0x0 DUP1 REVERT JUMPDEST POP PUSH2 0x296 DUP1 PUSH2 0x20 PUSH1 0x0 CODECOPY PUSH1 0x0 RETURN INVALID PUSH1 0x80 PUSH1 0x40 MSTORE CALLVALUE DUP1 ISZERO PUSH2 0x10 JUMPI PUSH1 0x0 DUP1 REVERT JUMPDEST POP PUSH1 0x4 CALLDATASIZE LT PUSH2 0x2B JUMPI PUSH1 0x0 CALLDATALOAD PUSH1 0xE0 SHR DUP1 PUSH4 0xBD526347 EQ PUSH2 0x30 JUMPI JUMPDEST PUSH1 0x0 DUP1 REVERT JUMPDEST PUSH2 0x4A PUSH1 0x4 DUP1 CALLDATASIZE SUB DUP2 ADD SWAP1 PUSH2 0x45 SWAP2 SWAP1 PUSH2 0x111 JUMP JUMPDEST PUSH2 0x4C JUMP JUMPDEST STOP JUMPDEST DUP1 DUP3 GT ISZERO PUSH2 0x8F JUMPI PUSH1 0x40 MLOAD PUSH32 0x8C379A000000000000000000000000000000000000000000000000000000000 DUP2 MSTORE PUSH1 0x4 ADD PUSH2 0x86 SWAP1 PUSH2 0x1D4 JUMP JUMPDEST PUSH1 0x40 MLOAD DUP1 SWAP2 SUB SWAP1 REVERT JUMPDEST PUSH1 0x0 DUP3 GT PUSH2 0xD2 JUMPI PUSH1 0x40 MLOAD PUSH32 0x8C379A000000000000000000000000000000000000000000000000000000000 DUP2 MSTORE PUSH1 0x4 ADD PUSH2 0xC9 SWAP1 PUSH2 0x240 JUMP JUMPDEST PUSH1 0x40 MLOAD DUP1 SWAP2 SUB SWAP1 REVERT JUMPDEST POP POP JUMP JUMPDEST PUSH1 0x0 DUP1 REVERT JUMPDEST PUSH1 0x0 DUP2 SWAP1 POP SWAP2 SWAP1 POP JUMP JUMPDEST PUSH2 0xEE DUP2 PUSH2 0xDB JUMP JUMPDEST DUP2 EQ PUSH2 0xF9 JUMPI PUSH1 0x0 DUP1 REVERT JUMPDEST POP JUMP JUMPDEST PUSH1 0x0 DUP2 CALLDATALOAD SWAP1 POP PUSH2 0x10B DUP2 PUSH2 0xE5 JUMP JUMPDEST SWAP3 SWAP2 POP POP JUMP JUMPDEST PUSH1 0x0 DUP1 PUSH1 0x40 DUP4 DUP6 SUB SLT ISZERO PUSH2 0x128 JUMPI PUSH2 0x127 PUSH2 0xD6 JUMP JUMPDEST JUMPDEST PUSH1 0x0 PUSH2 0x136 DUP6 DUP3 DUP7 ADD PUSH2 0xFC JUMP JUMPDEST SWAP3 POP POP PUSH1 0x20 PUSH2 0x147 DUP6 DUP3 DUP7 ADD PUSH2 0xFC JUMP JUMPDEST SWAP2 POP POP SWAP3 POP SWAP3 SWAP1 POP JUMP JUMPDEST PUSH1 0x0 DUP3 DUP3 MSTORE PUSH1 0x20 DUP3 ADD SWAP1 POP SWAP3 SWAP2 POP POP JUMP JUMPDEST PUSH32 0x596F752063616E2774207370656E64206D6F7265207468616E20796F75206861 PUSH1 0x0 DUP3 ADD MSTORE PUSH32 0x76652E0000000000000000000000000000000000000000000000000000000000 PUSH1 0x20 DUP3 ADD MSTORE POP JUMP JUMPDEST PUSH1 0x0 PUSH2 0x1BE PUSH1 0x23 DUP4 PUSH2 0x151 JUMP JUMPDEST SWAP2 POP PUSH2 0x1C9 DUP3 PUSH2 0x162 JUMP JUMPDEST PUSH1 0x40 DUP3 ADD SWAP1 POP SWAP2 SWAP1 POP JUMP JUMPDEST PUSH1 0x0 PUSH1 0x20 DUP3 ADD SWAP1 POP DUP2 DUP2 SUB PUSH1 0x0 DUP4 ADD MSTORE PUSH2 0x1ED DUP2 PUSH2 0x1B1 JUMP JUMPDEST SWAP1 POP SWAP2 SWAP1 POP JUMP JUMPDEST PUSH32 0x416D6F756E742068617320746F206265206D6F7265207468616E20302E000000 PUSH1 0x0 DUP3 ADD MSTORE POP JUMP JUMPDEST PUSH1 0x0 PUSH2 0x22A PUSH1 0x1D DUP4 PUSH2 0x151 JUMP JUMPDEST SWAP2 POP PUSH2 0x235 DUP3 PUSH2 0x1F4 JUMP JUMPDEST PUSH1 0x20 DUP3 ADD SWAP1 POP SWAP2 SWAP1 POP JUMP JUMPDEST PUSH1 0x0 PUSH1 0x20 DUP3 ADD SWAP1 POP DUP2 DUP2 SUB PUSH1 0x0 DUP4 ADD MSTORE PUSH2 0x259 DUP2 PUSH2 0x21D JUMP JUMPDEST SWAP1 POP SWAP2 SWAP1 POP JUMP INVALID LOG2 PUSH5 0x6970667358 0x22 SLT KECCAK256 PUSH24 0x5FB941137E17DCB2D0EF2114C7855EE5D809A367B5A35BC2 0x2E XOR 0xC8 0xB4 DUP1 0xD6 STOP PUSH5 0x736F6C6343 STOP ADDMOD SLT STOP CALLER "
		},
		"gasEstimates": {
			"creation": {
				"codeDepositCost": "132400",
				"executionCost": "177",
				"totalCost": "132577"
			},
			"external": {
				"enoughBalance(uint256,uint256)": "infinite"
			}
		},
		"methodIdentifiers": {
			"enoughBalance(uint256,uint256)": "bd526347"
		}
	},
	"abi": [
		{
			"inputs": [
				{
					"internalType": "uint256",
					"name": "amount",
					"type": "uint256"
				},
				{
					"internalType": "uint256",
					"name": "senderBalance",
					"type": "uint256"
				}
			],
			"name": "enoughBalance",
			"outputs": [],
			"stateMutability": "pure",
			"type": "function"
		}
	]
}