{
	"contracts/Smart_Wallet_Final/Smart_Wallet.sol": {
		"SmartWallet": {
			"abi": [
				{
					"anonymous": false,
					"inputs": [
						{
							"indexed": false,
							"internalType": "string",
							"name": "reason",
							"type": "string"
						}
					],
					"name": "LogError",
					"type": "event"
				},
				{
					"inputs": [
						{
							"internalType": "uint256",
							"name": "amount",
							"type": "uint256"
						},
						{
							"internalType": "uint256",
							"name": "senderBalance",
							"type": "uint256"
						}
					],
					"name": "amountController",
					"outputs": [],
					"stateMutability": "pure",
					"type": "function"
				},
				{
					"inputs": [],
					"name": "deposit",
					"outputs": [],
					"stateMutability": "payable",
					"type": "function"
				},
				{
					"inputs": [],
					"name": "showBalance",
					"outputs": [
						{
							"internalType": "uint256",
							"name": "",
							"type": "uint256"
						}
					],
					"stateMutability": "view",
					"type": "function"
				},
				{
					"inputs": [
						{
							"internalType": "uint256",
							"name": "amount",
							"type": "uint256"
						},
						{
							"internalType": "address payable",
							"name": "to",
							"type": "address"
						}
					],
					"name": "transfer",
					"outputs": [],
					"stateMutability": "nonpayable",
					"type": "function"
				},
				{
					"inputs": [
						{
							"internalType": "uint256",
							"name": "amount",
							"type": "uint256"
						}
					],
					"name": "withdraw",
					"outputs": [],
					"stateMutability": "nonpayable",
					"type": "function"
				}
			],
			"devdoc": {
				"kind": "dev",
				"methods": {},
				"version": 1
			},
			"evm": {
				"assembly": "    /* \"contracts/Smart_Wallet_Final/Smart_Wallet.sol\":125:1493  contract SmartWallet is BalanceAndAmount {... */\n  mstore(0x40, 0x80)\n    /* \"contracts/Smart_Wallet_Final/Smart_Wallet.sol\":290:312  new BalanceAndAmount() */\n  mload(0x40)\n  tag_1\n  swap1\n  tag_2\n  jump\t// in\ntag_1:\n  mload(0x40)\n  dup1\n  swap2\n  sub\n  swap1\n  0x00\n  create\n  dup1\n  iszero\n  dup1\n  iszero\n  tag_3\n  jumpi\n  returndatasize\n  0x00\n  dup1\n  returndatacopy\n  revert(0x00, returndatasize)\ntag_3:\n  pop\n    /* \"contracts/Smart_Wallet_Final/Smart_Wallet.sol\":260:312  BalanceAndAmount controller = new BalanceAndAmount() */\n  0x01\n  exp(0x0100, 0x00)\n  dup2\n  sload\n  dup2\n  0xffffffffffffffffffffffffffffffffffffffff\n  mul\n  not\n  and\n  swap1\n  dup4\n  0xffffffffffffffffffffffffffffffffffffffff\n  and\n  mul\n  or\n  swap1\n  sstore\n  pop\n    /* \"contracts/Smart_Wallet_Final/Smart_Wallet.sol\":125:1493  contract SmartWallet is BalanceAndAmount {... */\n  callvalue\n  dup1\n  iszero\n  tag_4\n  jumpi\n  0x00\n  dup1\n  revert\ntag_4:\n  pop\n  jump(tag_5)\ntag_2:\n  dataSize(sub_1)\n  dup1\n  dataOffset(sub_1)\n  dup4\n  codecopy\n  add\n  swap1\n  jump\t// out\ntag_5:\n  dataSize(sub_0)\n  dup1\n  dataOffset(sub_0)\n  0x00\n  codecopy\n  0x00\n  return\nstop\n\nsub_0: assembly {\n        /* \"contracts/Smart_Wallet_Final/Smart_Wallet.sol\":125:1493  contract SmartWallet is BalanceAndAmount {... */\n      mstore(0x40, 0x80)\n      jumpi(tag_1, lt(calldatasize, 0x04))\n      shr(0xe0, calldataload(0x00))\n      dup1\n      0x2e1a7d4d\n      eq\n      tag_2\n      jumpi\n      dup1\n      0x81b2d07b\n      eq\n      tag_3\n      jumpi\n      dup1\n      0x851de467\n      eq\n      tag_4\n      jumpi\n      dup1\n      0xb7760c8f\n      eq\n      tag_5\n      jumpi\n      dup1\n      0xd0e30db0\n      eq\n      tag_6\n      jumpi\n    tag_1:\n      0x00\n      dup1\n      revert\n        /* \"contracts/Smart_Wallet_Final/Smart_Wallet.sol\":536:935  function withdraw(uint amount) public {... */\n    tag_2:\n      callvalue\n      dup1\n      iszero\n      tag_7\n      jumpi\n      0x00\n      dup1\n      revert\n    tag_7:\n      pop\n      tag_8\n      0x04\n      dup1\n      calldatasize\n      sub\n      dup2\n      add\n      swap1\n      tag_9\n      swap2\n      swap1\n      tag_10\n      jump\t// in\n    tag_9:\n      tag_11\n      jump\t// in\n    tag_8:\n      stop\n        /* \"contracts/Smart_Wallet_Final/Smart_Wallet.sol\":1388:1490  function showBalance() public view returns(uint) {... */\n    tag_3:\n      callvalue\n      dup1\n      iszero\n      tag_12\n      jumpi\n      0x00\n      dup1\n      revert\n    tag_12:\n      pop\n      tag_13\n      tag_14\n      jump\t// in\n    tag_13:\n      mload(0x40)\n      tag_15\n      swap2\n      swap1\n      tag_16\n      jump\t// in\n    tag_15:\n      mload(0x40)\n      dup1\n      swap2\n      sub\n      swap1\n      return\n        /* \"contracts/Smart_Wallet_Final/Balance_And_Amount.sol\":95:321  function amountController(uint amount, uint senderBalance) external pure {... */\n    tag_4:\n      callvalue\n      dup1\n      iszero\n      tag_17\n      jumpi\n      0x00\n      dup1\n      revert\n    tag_17:\n      pop\n      tag_18\n      0x04\n      dup1\n      calldatasize\n      sub\n      dup2\n      add\n      swap1\n      tag_19\n      swap2\n      swap1\n      tag_20\n      jump\t// in\n    tag_19:\n      tag_21\n      jump\t// in\n    tag_18:\n      stop\n        /* \"contracts/Smart_Wallet_Final/Smart_Wallet.sol\":943:1380  function transfer(uint amount, address payable to) public {... */\n    tag_5:\n      callvalue\n      dup1\n      iszero\n      tag_22\n      jumpi\n      0x00\n      dup1\n      revert\n    tag_22:\n      pop\n      tag_23\n      0x04\n      dup1\n      calldatasize\n      sub\n      dup2\n      add\n      swap1\n      tag_24\n      swap2\n      swap1\n      tag_25\n      jump\t// in\n    tag_24:\n      tag_26\n      jump\t// in\n    tag_23:\n      stop\n        /* \"contracts/Smart_Wallet_Final/Smart_Wallet.sol\":436:528  function deposit() public payable {... */\n    tag_6:\n      tag_27\n      tag_28\n      jump\t// in\n    tag_27:\n      stop\n        /* \"contracts/Smart_Wallet_Final/Smart_Wallet.sol\":536:935  function withdraw(uint amount) public {... */\n    tag_11:\n        /* \"contracts/Smart_Wallet_Final/Smart_Wallet.sol\":585:603  uint senderBalance */\n      0x00\n        /* \"contracts/Smart_Wallet_Final/Smart_Wallet.sol\":606:613  wallets */\n      dup1\n        /* \"contracts/Smart_Wallet_Final/Smart_Wallet.sol\":606:625  wallets[msg.sender] */\n      0x00\n        /* \"contracts/Smart_Wallet_Final/Smart_Wallet.sol\":614:624  msg.sender */\n      caller\n        /* \"contracts/Smart_Wallet_Final/Smart_Wallet.sol\":606:625  wallets[msg.sender] */\n      0xffffffffffffffffffffffffffffffffffffffff\n      and\n      0xffffffffffffffffffffffffffffffffffffffff\n      and\n      dup2\n      mstore\n      0x20\n      add\n      swap1\n      dup2\n      mstore\n      0x20\n      add\n      0x00\n      keccak256\n        /* \"contracts/Smart_Wallet_Final/Smart_Wallet.sol\":606:633  wallets[msg.sender].balance */\n      0x01\n      add\n      sload\n        /* \"contracts/Smart_Wallet_Final/Smart_Wallet.sol\":585:633  uint senderBalance = wallets[msg.sender].balance */\n      swap1\n      pop\n        /* \"contracts/Smart_Wallet_Final/Smart_Wallet.sol\":648:658  controller */\n      0x01\n      0x00\n      swap1\n      sload\n      swap1\n      0x0100\n      exp\n      swap1\n      div\n      0xffffffffffffffffffffffffffffffffffffffff\n      and\n        /* \"contracts/Smart_Wallet_Final/Smart_Wallet.sol\":648:675  controller.amountController */\n      0xffffffffffffffffffffffffffffffffffffffff\n      and\n      0x851de467\n        /* \"contracts/Smart_Wallet_Final/Smart_Wallet.sol\":676:682  amount */\n      dup4\n        /* \"contracts/Smart_Wallet_Final/Smart_Wallet.sol\":684:697  senderBalance */\n      dup4\n        /* \"contracts/Smart_Wallet_Final/Smart_Wallet.sol\":648:698  controller.amountController(amount, senderBalance) */\n      mload(0x40)\n      dup4\n      0xffffffff\n      and\n      0xe0\n      shl\n      dup2\n      mstore\n      0x04\n      add\n      tag_30\n      swap3\n      swap2\n      swap1\n      tag_31\n      jump\t// in\n    tag_30:\n      0x00\n      mload(0x40)\n      dup1\n      dup4\n      sub\n      dup2\n      dup7\n      dup1\n      extcodesize\n      iszero\n      dup1\n      iszero\n      tag_32\n      jumpi\n      0x00\n      dup1\n      revert\n    tag_32:\n      pop\n      gas\n      staticcall\n      swap3\n      pop\n      pop\n      pop\n      dup1\n      iszero\n      tag_33\n      jumpi\n      pop\n      0x01\n    tag_33:\n        /* \"contracts/Smart_Wallet_Final/Smart_Wallet.sol\":644:928  try controller.amountController(amount, senderBalance) {... */\n      tag_34\n      jumpi\n      tag_38\n      tag_39\n      jump\t// in\n    tag_38:\n      dup1\n      0x08c379a0\n      sub\n      tag_37\n      jumpi\n      pop\n      tag_40\n      tag_41\n      jump\t// in\n    tag_40:\n      dup1\n      tag_42\n      jumpi\n      pop\n      jump(tag_36)\n    tag_42:\n        /* \"contracts/Smart_Wallet_Final/Smart_Wallet.sol\":900:916  LogError(reason) */\n      0xc35a0ec6603ff0b5966d7ca053a5f0984a70aad58a9a0ecb1349308815a4151a\n        /* \"contracts/Smart_Wallet_Final/Smart_Wallet.sol\":909:915  reason */\n      dup2\n        /* \"contracts/Smart_Wallet_Final/Smart_Wallet.sol\":900:916  LogError(reason) */\n      mload(0x40)\n      tag_43\n      swap2\n      swap1\n      tag_44\n      jump\t// in\n    tag_43:\n      mload(0x40)\n      dup1\n      swap2\n      sub\n      swap1\n      log1\n        /* \"contracts/Smart_Wallet_Final/Smart_Wallet.sol\":847:928  catch Error(string memory reason){... */\n      pop\n        /* \"contracts/Smart_Wallet_Final/Smart_Wallet.sol\":644:928  try controller.amountController(amount, senderBalance) {... */\n      jump(tag_35)\n    tag_37:\n      pop\n    tag_36:\n      returndatasize\n      0x00\n      dup1\n      returndatacopy\n      revert(0x00, returndatasize)\n    tag_35:\n      jump(tag_45)\n    tag_34:\n        /* \"contracts/Smart_Wallet_Final/Smart_Wallet.sol\":744:783  wallets[msg.sender].balance.sub(amount) */\n      tag_46\n        /* \"contracts/Smart_Wallet_Final/Smart_Wallet.sol\":776:782  amount */\n      dup3\n        /* \"contracts/Smart_Wallet_Final/Smart_Wallet.sol\":744:751  wallets */\n      0x00\n        /* \"contracts/Smart_Wallet_Final/Smart_Wallet.sol\":744:763  wallets[msg.sender] */\n      dup1\n        /* \"contracts/Smart_Wallet_Final/Smart_Wallet.sol\":752:762  msg.sender */\n      caller\n        /* \"contracts/Smart_Wallet_Final/Smart_Wallet.sol\":744:763  wallets[msg.sender] */\n      0xffffffffffffffffffffffffffffffffffffffff\n      and\n      0xffffffffffffffffffffffffffffffffffffffff\n      and\n      dup2\n      mstore\n      0x20\n      add\n      swap1\n      dup2\n      mstore\n      0x20\n      add\n      0x00\n      keccak256\n        /* \"contracts/Smart_Wallet_Final/Smart_Wallet.sol\":744:771  wallets[msg.sender].balance */\n      0x01\n      add\n      sload\n        /* \"contracts/Smart_Wallet_Final/Smart_Wallet.sol\":744:775  wallets[msg.sender].balance.sub */\n      tag_47\n      swap1\n        /* \"contracts/Smart_Wallet_Final/Smart_Wallet.sol\":744:783  wallets[msg.sender].balance.sub(amount) */\n      swap2\n      swap1\n      0xffffffff\n      and\n      jump\t// in\n    tag_46:\n        /* \"contracts/Smart_Wallet_Final/Smart_Wallet.sol\":714:721  wallets */\n      0x00\n        /* \"contracts/Smart_Wallet_Final/Smart_Wallet.sol\":714:733  wallets[msg.sender] */\n      dup1\n        /* \"contracts/Smart_Wallet_Final/Smart_Wallet.sol\":722:732  msg.sender */\n      caller\n        /* \"contracts/Smart_Wallet_Final/Smart_Wallet.sol\":714:733  wallets[msg.sender] */\n      0xffffffffffffffffffffffffffffffffffffffff\n      and\n      0xffffffffffffffffffffffffffffffffffffffff\n      and\n      dup2\n      mstore\n      0x20\n      add\n      swap1\n      dup2\n      mstore\n      0x20\n      add\n      0x00\n      keccak256\n        /* \"contracts/Smart_Wallet_Final/Smart_Wallet.sol\":714:741  wallets[msg.sender].balance */\n      0x01\n      add\n        /* \"contracts/Smart_Wallet_Final/Smart_Wallet.sol\":714:783  wallets[msg.sender].balance = wallets[msg.sender].balance.sub(amount) */\n      dup2\n      swap1\n      sstore\n      pop\n        /* \"contracts/Smart_Wallet_Final/Smart_Wallet.sol\":806:816  msg.sender */\n      caller\n        /* \"contracts/Smart_Wallet_Final/Smart_Wallet.sol\":798:826  payable(msg.sender).transfer */\n      0xffffffffffffffffffffffffffffffffffffffff\n      and\n        /* \"contracts/Smart_Wallet_Final/Smart_Wallet.sol\":798:834  payable(msg.sender).transfer(amount) */\n      0x08fc\n        /* \"contracts/Smart_Wallet_Final/Smart_Wallet.sol\":827:833  amount */\n      dup4\n        /* \"contracts/Smart_Wallet_Final/Smart_Wallet.sol\":798:834  payable(msg.sender).transfer(amount) */\n      swap1\n      dup2\n      iszero\n      mul\n      swap1\n      mload(0x40)\n      0x00\n      mload(0x40)\n      dup1\n      dup4\n      sub\n      dup2\n      dup6\n      dup9\n      dup9\n      call\n      swap4\n      pop\n      pop\n      pop\n      pop\n      iszero\n      dup1\n      iszero\n      tag_49\n      jumpi\n      returndatasize\n      0x00\n      dup1\n      returndatacopy\n      revert(0x00, returndatasize)\n    tag_49:\n      pop\n        /* \"contracts/Smart_Wallet_Final/Smart_Wallet.sol\":644:928  try controller.amountController(amount, senderBalance) {... */\n    tag_45:\n        /* \"contracts/Smart_Wallet_Final/Smart_Wallet.sol\":574:935  {... */\n      pop\n        /* \"contracts/Smart_Wallet_Final/Smart_Wallet.sol\":536:935  function withdraw(uint amount) public {... */\n      pop\n      jump\t// out\n        /* \"contracts/Smart_Wallet_Final/Smart_Wallet.sol\":1388:1490  function showBalance() public view returns(uint) {... */\n    tag_14:\n        /* \"contracts/Smart_Wallet_Final/Smart_Wallet.sol\":1431:1435  uint */\n      0x00\n        /* \"contracts/Smart_Wallet_Final/Smart_Wallet.sol\":1455:1462  wallets */\n      dup1\n        /* \"contracts/Smart_Wallet_Final/Smart_Wallet.sol\":1455:1474  wallets[msg.sender] */\n      0x00\n        /* \"contracts/Smart_Wallet_Final/Smart_Wallet.sol\":1463:1473  msg.sender */\n      caller\n        /* \"contracts/Smart_Wallet_Final/Smart_Wallet.sol\":1455:1474  wallets[msg.sender] */\n      0xffffffffffffffffffffffffffffffffffffffff\n      and\n      0xffffffffffffffffffffffffffffffffffffffff\n      and\n      dup2\n      mstore\n      0x20\n      add\n      swap1\n      dup2\n      mstore\n      0x20\n      add\n      0x00\n      keccak256\n        /* \"contracts/Smart_Wallet_Final/Smart_Wallet.sol\":1455:1482  wallets[msg.sender].balance */\n      0x01\n      add\n      sload\n        /* \"contracts/Smart_Wallet_Final/Smart_Wallet.sol\":1448:1482  return wallets[msg.sender].balance */\n      swap1\n      pop\n        /* \"contracts/Smart_Wallet_Final/Smart_Wallet.sol\":1388:1490  function showBalance() public view returns(uint) {... */\n      swap1\n      jump\t// out\n        /* \"contracts/Smart_Wallet_Final/Balance_And_Amount.sol\":95:321  function amountController(uint amount, uint senderBalance) external pure {... */\n    tag_21:\n        /* \"contracts/Smart_Wallet_Final/Balance_And_Amount.sol\":197:210  senderBalance */\n      dup1\n        /* \"contracts/Smart_Wallet_Final/Balance_And_Amount.sol\":187:193  amount */\n      dup3\n        /* \"contracts/Smart_Wallet_Final/Balance_And_Amount.sol\":187:210  amount <= senderBalance */\n      gt\n      iszero\n        /* \"contracts/Smart_Wallet_Final/Balance_And_Amount.sol\":179:250  require(amount <= senderBalance, \"You can't spend more than you have.\") */\n      tag_52\n      jumpi\n      mload(0x40)\n      0x08c379a000000000000000000000000000000000000000000000000000000000\n      dup2\n      mstore\n      0x04\n      add\n      tag_53\n      swap1\n      tag_54\n      jump\t// in\n    tag_53:\n      mload(0x40)\n      dup1\n      swap2\n      sub\n      swap1\n      revert\n    tag_52:\n        /* \"contracts/Smart_Wallet_Final/Balance_And_Amount.sol\":278:279  0 */\n      0x00\n        /* \"contracts/Smart_Wallet_Final/Balance_And_Amount.sol\":269:275  amount */\n      dup3\n        /* \"contracts/Smart_Wallet_Final/Balance_And_Amount.sol\":269:279  amount > 0 */\n      gt\n        /* \"contracts/Smart_Wallet_Final/Balance_And_Amount.sol\":261:313  require(amount > 0, \"Amount has to be more than 0.\") */\n      tag_55\n      jumpi\n      mload(0x40)\n      0x08c379a000000000000000000000000000000000000000000000000000000000\n      dup2\n      mstore\n      0x04\n      add\n      tag_56\n      swap1\n      tag_57\n      jump\t// in\n    tag_56:\n      mload(0x40)\n      dup1\n      swap2\n      sub\n      swap1\n      revert\n    tag_55:\n        /* \"contracts/Smart_Wallet_Final/Balance_And_Amount.sol\":95:321  function amountController(uint amount, uint senderBalance) external pure {... */\n      pop\n      pop\n      jump\t// out\n        /* \"contracts/Smart_Wallet_Final/Smart_Wallet.sol\":943:1380  function transfer(uint amount, address payable to) public {... */\n    tag_26:\n        /* \"contracts/Smart_Wallet_Final/Smart_Wallet.sol\":1012:1030  uint senderBalance */\n      0x00\n        /* \"contracts/Smart_Wallet_Final/Smart_Wallet.sol\":1033:1040  wallets */\n      dup1\n        /* \"contracts/Smart_Wallet_Final/Smart_Wallet.sol\":1033:1052  wallets[msg.sender] */\n      0x00\n        /* \"contracts/Smart_Wallet_Final/Smart_Wallet.sol\":1041:1051  msg.sender */\n      caller\n        /* \"contracts/Smart_Wallet_Final/Smart_Wallet.sol\":1033:1052  wallets[msg.sender] */\n      0xffffffffffffffffffffffffffffffffffffffff\n      and\n      0xffffffffffffffffffffffffffffffffffffffff\n      and\n      dup2\n      mstore\n      0x20\n      add\n      swap1\n      dup2\n      mstore\n      0x20\n      add\n      0x00\n      keccak256\n        /* \"contracts/Smart_Wallet_Final/Smart_Wallet.sol\":1033:1060  wallets[msg.sender].balance */\n      0x01\n      add\n      sload\n        /* \"contracts/Smart_Wallet_Final/Smart_Wallet.sol\":1012:1060  uint senderBalance = wallets[msg.sender].balance */\n      swap1\n      pop\n        /* \"contracts/Smart_Wallet_Final/Smart_Wallet.sol\":1075:1085  controller */\n      0x01\n      0x00\n      swap1\n      sload\n      swap1\n      0x0100\n      exp\n      swap1\n      div\n      0xffffffffffffffffffffffffffffffffffffffff\n      and\n        /* \"contracts/Smart_Wallet_Final/Smart_Wallet.sol\":1075:1102  controller.amountController */\n      0xffffffffffffffffffffffffffffffffffffffff\n      and\n      0x851de467\n        /* \"contracts/Smart_Wallet_Final/Smart_Wallet.sol\":1103:1109  amount */\n      dup5\n        /* \"contracts/Smart_Wallet_Final/Smart_Wallet.sol\":1111:1124  senderBalance */\n      dup4\n        /* \"contracts/Smart_Wallet_Final/Smart_Wallet.sol\":1075:1125  controller.amountController(amount, senderBalance) */\n      mload(0x40)\n      dup4\n      0xffffffff\n      and\n      0xe0\n      shl\n      dup2\n      mstore\n      0x04\n      add\n      tag_59\n      swap3\n      swap2\n      swap1\n      tag_31\n      jump\t// in\n    tag_59:\n      0x00\n      mload(0x40)\n      dup1\n      dup4\n      sub\n      dup2\n      dup7\n      dup1\n      extcodesize\n      iszero\n      dup1\n      iszero\n      tag_60\n      jumpi\n      0x00\n      dup1\n      revert\n    tag_60:\n      pop\n      gas\n      staticcall\n      swap3\n      pop\n      pop\n      pop\n      dup1\n      iszero\n      tag_61\n      jumpi\n      pop\n      0x01\n    tag_61:\n        /* \"contracts/Smart_Wallet_Final/Smart_Wallet.sol\":1071:1373  try controller.amountController(amount, senderBalance) {... */\n      tag_62\n      jumpi\n      tag_66\n      tag_39\n      jump\t// in\n    tag_66:\n      dup1\n      0x08c379a0\n      sub\n      tag_65\n      jumpi\n      pop\n      tag_67\n      tag_41\n      jump\t// in\n    tag_67:\n      dup1\n      tag_68\n      jumpi\n      pop\n      jump(tag_64)\n    tag_68:\n        /* \"contracts/Smart_Wallet_Final/Smart_Wallet.sol\":1345:1361  LogError(reason) */\n      0xc35a0ec6603ff0b5966d7ca053a5f0984a70aad58a9a0ecb1349308815a4151a\n        /* \"contracts/Smart_Wallet_Final/Smart_Wallet.sol\":1354:1360  reason */\n      dup2\n        /* \"contracts/Smart_Wallet_Final/Smart_Wallet.sol\":1345:1361  LogError(reason) */\n      mload(0x40)\n      tag_69\n      swap2\n      swap1\n      tag_44\n      jump\t// in\n    tag_69:\n      mload(0x40)\n      dup1\n      swap2\n      sub\n      swap1\n      log1\n        /* \"contracts/Smart_Wallet_Final/Smart_Wallet.sol\":1291:1373  catch Error(string memory reason) {... */\n      pop\n        /* \"contracts/Smart_Wallet_Final/Smart_Wallet.sol\":1071:1373  try controller.amountController(amount, senderBalance) {... */\n      jump(tag_63)\n    tag_65:\n      pop\n    tag_64:\n      returndatasize\n      0x00\n      dup1\n      returndatacopy\n      revert(0x00, returndatasize)\n    tag_63:\n      jump(tag_70)\n    tag_62:\n        /* \"contracts/Smart_Wallet_Final/Smart_Wallet.sol\":1171:1210  wallets[msg.sender].balance.sub(amount) */\n      tag_71\n        /* \"contracts/Smart_Wallet_Final/Smart_Wallet.sol\":1203:1209  amount */\n      dup4\n        /* \"contracts/Smart_Wallet_Final/Smart_Wallet.sol\":1171:1178  wallets */\n      0x00\n        /* \"contracts/Smart_Wallet_Final/Smart_Wallet.sol\":1171:1190  wallets[msg.sender] */\n      dup1\n        /* \"contracts/Smart_Wallet_Final/Smart_Wallet.sol\":1179:1189  msg.sender */\n      caller\n        /* \"contracts/Smart_Wallet_Final/Smart_Wallet.sol\":1171:1190  wallets[msg.sender] */\n      0xffffffffffffffffffffffffffffffffffffffff\n      and\n      0xffffffffffffffffffffffffffffffffffffffff\n      and\n      dup2\n      mstore\n      0x20\n      add\n      swap1\n      dup2\n      mstore\n      0x20\n      add\n      0x00\n      keccak256\n        /* \"contracts/Smart_Wallet_Final/Smart_Wallet.sol\":1171:1198  wallets[msg.sender].balance */\n      0x01\n      add\n      sload\n        /* \"contracts/Smart_Wallet_Final/Smart_Wallet.sol\":1171:1202  wallets[msg.sender].balance.sub */\n      tag_47\n      swap1\n        /* \"contracts/Smart_Wallet_Final/Smart_Wallet.sol\":1171:1210  wallets[msg.sender].balance.sub(amount) */\n      swap2\n      swap1\n      0xffffffff\n      and\n      jump\t// in\n    tag_71:\n        /* \"contracts/Smart_Wallet_Final/Smart_Wallet.sol\":1141:1148  wallets */\n      0x00\n        /* \"contracts/Smart_Wallet_Final/Smart_Wallet.sol\":1141:1160  wallets[msg.sender] */\n      dup1\n        /* \"contracts/Smart_Wallet_Final/Smart_Wallet.sol\":1149:1159  msg.sender */\n      caller\n        /* \"contracts/Smart_Wallet_Final/Smart_Wallet.sol\":1141:1160  wallets[msg.sender] */\n      0xffffffffffffffffffffffffffffffffffffffff\n      and\n      0xffffffffffffffffffffffffffffffffffffffff\n      and\n      dup2\n      mstore\n      0x20\n      add\n      swap1\n      dup2\n      mstore\n      0x20\n      add\n      0x00\n      keccak256\n        /* \"contracts/Smart_Wallet_Final/Smart_Wallet.sol\":1141:1168  wallets[msg.sender].balance */\n      0x01\n      add\n        /* \"contracts/Smart_Wallet_Final/Smart_Wallet.sol\":1141:1210  wallets[msg.sender].balance = wallets[msg.sender].balance.sub(amount) */\n      dup2\n      swap1\n      sstore\n      pop\n        /* \"contracts/Smart_Wallet_Final/Smart_Wallet.sol\":1247:1278  wallets[to].balance.add(amount) */\n      tag_72\n        /* \"contracts/Smart_Wallet_Final/Smart_Wallet.sol\":1271:1277  amount */\n      dup4\n        /* \"contracts/Smart_Wallet_Final/Smart_Wallet.sol\":1247:1254  wallets */\n      0x00\n        /* \"contracts/Smart_Wallet_Final/Smart_Wallet.sol\":1247:1258  wallets[to] */\n      dup1\n        /* \"contracts/Smart_Wallet_Final/Smart_Wallet.sol\":1255:1257  to */\n      dup6\n        /* \"contracts/Smart_Wallet_Final/Smart_Wallet.sol\":1247:1258  wallets[to] */\n      0xffffffffffffffffffffffffffffffffffffffff\n      and\n      0xffffffffffffffffffffffffffffffffffffffff\n      and\n      dup2\n      mstore\n      0x20\n      add\n      swap1\n      dup2\n      mstore\n      0x20\n      add\n      0x00\n      keccak256\n        /* \"contracts/Smart_Wallet_Final/Smart_Wallet.sol\":1247:1266  wallets[to].balance */\n      0x01\n      add\n      sload\n        /* \"contracts/Smart_Wallet_Final/Smart_Wallet.sol\":1247:1270  wallets[to].balance.add */\n      tag_73\n      swap1\n        /* \"contracts/Smart_Wallet_Final/Smart_Wallet.sol\":1247:1278  wallets[to].balance.add(amount) */\n      swap2\n      swap1\n      0xffffffff\n      and\n      jump\t// in\n    tag_72:\n        /* \"contracts/Smart_Wallet_Final/Smart_Wallet.sol\":1225:1232  wallets */\n      0x00\n        /* \"contracts/Smart_Wallet_Final/Smart_Wallet.sol\":1225:1236  wallets[to] */\n      dup1\n        /* \"contracts/Smart_Wallet_Final/Smart_Wallet.sol\":1233:1235  to */\n      dup5\n        /* \"contracts/Smart_Wallet_Final/Smart_Wallet.sol\":1225:1236  wallets[to] */\n      0xffffffffffffffffffffffffffffffffffffffff\n      and\n      0xffffffffffffffffffffffffffffffffffffffff\n      and\n      dup2\n      mstore\n      0x20\n      add\n      swap1\n      dup2\n      mstore\n      0x20\n      add\n      0x00\n      keccak256\n        /* \"contracts/Smart_Wallet_Final/Smart_Wallet.sol\":1225:1244  wallets[to].balance */\n      0x01\n      add\n        /* \"contracts/Smart_Wallet_Final/Smart_Wallet.sol\":1225:1278  wallets[to].balance = wallets[to].balance.add(amount) */\n      dup2\n      swap1\n      sstore\n      pop\n        /* \"contracts/Smart_Wallet_Final/Smart_Wallet.sol\":1071:1373  try controller.amountController(amount, senderBalance) {... */\n    tag_70:\n        /* \"contracts/Smart_Wallet_Final/Smart_Wallet.sol\":1001:1380  {... */\n      pop\n        /* \"contracts/Smart_Wallet_Final/Smart_Wallet.sol\":943:1380  function transfer(uint amount, address payable to) public {... */\n      pop\n      pop\n      jump\t// out\n        /* \"contracts/Smart_Wallet_Final/Smart_Wallet.sol\":436:528  function deposit() public payable {... */\n    tag_28:\n        /* \"contracts/Smart_Wallet_Final/Smart_Wallet.sol\":511:520  msg.value */\n      callvalue\n        /* \"contracts/Smart_Wallet_Final/Smart_Wallet.sol\":481:488  wallets */\n      0x00\n        /* \"contracts/Smart_Wallet_Final/Smart_Wallet.sol\":481:500  wallets[msg.sender] */\n      dup1\n        /* \"contracts/Smart_Wallet_Final/Smart_Wallet.sol\":489:499  msg.sender */\n      caller\n        /* \"contracts/Smart_Wallet_Final/Smart_Wallet.sol\":481:500  wallets[msg.sender] */\n      0xffffffffffffffffffffffffffffffffffffffff\n      and\n      0xffffffffffffffffffffffffffffffffffffffff\n      and\n      dup2\n      mstore\n      0x20\n      add\n      swap1\n      dup2\n      mstore\n      0x20\n      add\n      0x00\n      keccak256\n        /* \"contracts/Smart_Wallet_Final/Smart_Wallet.sol\":481:508  wallets[msg.sender].balance */\n      0x01\n      add\n        /* \"contracts/Smart_Wallet_Final/Smart_Wallet.sol\":481:520  wallets[msg.sender].balance = msg.value */\n      dup2\n      swap1\n      sstore\n      pop\n        /* \"contracts/Smart_Wallet_Final/Smart_Wallet.sol\":436:528  function deposit() public payable {... */\n      jump\t// out\n        /* \"contracts/Smart_Wallet_Final/Safe_Math.sol\":900:1013  function sub(uint256 a, uint256 b) internal pure returns (uint256) {... */\n    tag_47:\n        /* \"contracts/Smart_Wallet_Final/Safe_Math.sol\":958:965  uint256 */\n      0x00\n        /* \"contracts/Smart_Wallet_Final/Safe_Math.sol\":986:987  a */\n      dup3\n        /* \"contracts/Smart_Wallet_Final/Safe_Math.sol\":981:982  b */\n      dup3\n        /* \"contracts/Smart_Wallet_Final/Safe_Math.sol\":981:987  b <= a */\n      gt\n      iszero\n        /* \"contracts/Smart_Wallet_Final/Safe_Math.sol\":974:988  assert(b <= a) */\n      tag_76\n      jumpi\n      tag_77\n      tag_78\n      jump\t// in\n    tag_77:\n    tag_76:\n        /* \"contracts/Smart_Wallet_Final/Safe_Math.sol\":1006:1007  b */\n      dup2\n        /* \"contracts/Smart_Wallet_Final/Safe_Math.sol\":1002:1003  a */\n      dup4\n        /* \"contracts/Smart_Wallet_Final/Safe_Math.sol\":1002:1007  a - b */\n      tag_79\n      swap2\n      swap1\n      tag_80\n      jump\t// in\n    tag_79:\n        /* \"contracts/Smart_Wallet_Final/Safe_Math.sol\":995:1007  return a - b */\n      swap1\n      pop\n        /* \"contracts/Smart_Wallet_Final/Safe_Math.sol\":900:1013  function sub(uint256 a, uint256 b) internal pure returns (uint256) {... */\n      swap3\n      swap2\n      pop\n      pop\n      jump\t// out\n        /* \"contracts/Smart_Wallet_Final/Safe_Math.sol\":1080:1207  function add(uint256 a, uint256 b) internal pure returns (uint256 c) {... */\n    tag_73:\n        /* \"contracts/Smart_Wallet_Final/Safe_Math.sol\":1138:1147  uint256 c */\n      0x00\n        /* \"contracts/Smart_Wallet_Final/Safe_Math.sol\":1164:1165  b */\n      dup2\n        /* \"contracts/Smart_Wallet_Final/Safe_Math.sol\":1160:1161  a */\n      dup4\n        /* \"contracts/Smart_Wallet_Final/Safe_Math.sol\":1160:1165  a + b */\n      tag_82\n      swap2\n      swap1\n      tag_83\n      jump\t// in\n    tag_82:\n        /* \"contracts/Smart_Wallet_Final/Safe_Math.sol\":1156:1165  c = a + b */\n      swap1\n      pop\n        /* \"contracts/Smart_Wallet_Final/Safe_Math.sol\":1184:1185  a */\n      dup3\n        /* \"contracts/Smart_Wallet_Final/Safe_Math.sol\":1179:1180  c */\n      dup2\n        /* \"contracts/Smart_Wallet_Final/Safe_Math.sol\":1179:1185  c >= a */\n      lt\n      iszero\n        /* \"contracts/Smart_Wallet_Final/Safe_Math.sol\":1172:1186  assert(c >= a) */\n      tag_84\n      jumpi\n      tag_85\n      tag_78\n      jump\t// in\n    tag_85:\n    tag_84:\n        /* \"contracts/Smart_Wallet_Final/Safe_Math.sol\":1080:1207  function add(uint256 a, uint256 b) internal pure returns (uint256 c) {... */\n      swap3\n      swap2\n      pop\n      pop\n      jump\t// out\n        /* \"#utility.yul\":7:82   */\n    tag_86:\n        /* \"#utility.yul\":40:46   */\n      0x00\n        /* \"#utility.yul\":73:75   */\n      0x40\n        /* \"#utility.yul\":67:76   */\n      mload\n        /* \"#utility.yul\":57:76   */\n      swap1\n      pop\n        /* \"#utility.yul\":7:82   */\n      swap1\n      jump\t// out\n        /* \"#utility.yul\":88:205   */\n    tag_87:\n        /* \"#utility.yul\":197:198   */\n      0x00\n        /* \"#utility.yul\":194:195   */\n      dup1\n        /* \"#utility.yul\":187:199   */\n      revert\n        /* \"#utility.yul\":334:411   */\n    tag_89:\n        /* \"#utility.yul\":371:378   */\n      0x00\n        /* \"#utility.yul\":400:405   */\n      dup2\n        /* \"#utility.yul\":389:405   */\n      swap1\n      pop\n        /* \"#utility.yul\":334:411   */\n      swap2\n      swap1\n      pop\n      jump\t// out\n        /* \"#utility.yul\":417:539   */\n    tag_90:\n        /* \"#utility.yul\":490:514   */\n      tag_116\n        /* \"#utility.yul\":508:513   */\n      dup2\n        /* \"#utility.yul\":490:514   */\n      tag_89\n      jump\t// in\n    tag_116:\n        /* \"#utility.yul\":483:488   */\n      dup2\n        /* \"#utility.yul\":480:515   */\n      eq\n        /* \"#utility.yul\":470:533   */\n      tag_117\n      jumpi\n        /* \"#utility.yul\":529:530   */\n      0x00\n        /* \"#utility.yul\":526:527   */\n      dup1\n        /* \"#utility.yul\":519:531   */\n      revert\n        /* \"#utility.yul\":470:533   */\n    tag_117:\n        /* \"#utility.yul\":417:539   */\n      pop\n      jump\t// out\n        /* \"#utility.yul\":545:684   */\n    tag_91:\n        /* \"#utility.yul\":591:596   */\n      0x00\n        /* \"#utility.yul\":629:635   */\n      dup2\n        /* \"#utility.yul\":616:636   */\n      calldataload\n        /* \"#utility.yul\":607:636   */\n      swap1\n      pop\n        /* \"#utility.yul\":645:678   */\n      tag_119\n        /* \"#utility.yul\":672:677   */\n      dup2\n        /* \"#utility.yul\":645:678   */\n      tag_90\n      jump\t// in\n    tag_119:\n        /* \"#utility.yul\":545:684   */\n      swap3\n      swap2\n      pop\n      pop\n      jump\t// out\n        /* \"#utility.yul\":690:1019   */\n    tag_10:\n        /* \"#utility.yul\":749:755   */\n      0x00\n        /* \"#utility.yul\":798:800   */\n      0x20\n        /* \"#utility.yul\":786:795   */\n      dup3\n        /* \"#utility.yul\":777:784   */\n      dup5\n        /* \"#utility.yul\":773:796   */\n      sub\n        /* \"#utility.yul\":769:801   */\n      slt\n        /* \"#utility.yul\":766:885   */\n      iszero\n      tag_121\n      jumpi\n        /* \"#utility.yul\":804:883   */\n      tag_122\n      tag_87\n      jump\t// in\n    tag_122:\n        /* \"#utility.yul\":766:885   */\n    tag_121:\n        /* \"#utility.yul\":924:925   */\n      0x00\n        /* \"#utility.yul\":949:1002   */\n      tag_123\n        /* \"#utility.yul\":994:1001   */\n      dup5\n        /* \"#utility.yul\":985:991   */\n      dup3\n        /* \"#utility.yul\":974:983   */\n      dup6\n        /* \"#utility.yul\":970:992   */\n      add\n        /* \"#utility.yul\":949:1002   */\n      tag_91\n      jump\t// in\n    tag_123:\n        /* \"#utility.yul\":939:1002   */\n      swap2\n      pop\n        /* \"#utility.yul\":895:1012   */\n      pop\n        /* \"#utility.yul\":690:1019   */\n      swap3\n      swap2\n      pop\n      pop\n      jump\t// out\n        /* \"#utility.yul\":1025:1143   */\n    tag_92:\n        /* \"#utility.yul\":1112:1136   */\n      tag_125\n        /* \"#utility.yul\":1130:1135   */\n      dup2\n        /* \"#utility.yul\":1112:1136   */\n      tag_89\n      jump\t// in\n    tag_125:\n        /* \"#utility.yul\":1107:1110   */\n      dup3\n        /* \"#utility.yul\":1100:1137   */\n      mstore\n        /* \"#utility.yul\":1025:1143   */\n      pop\n      pop\n      jump\t// out\n        /* \"#utility.yul\":1149:1371   */\n    tag_16:\n        /* \"#utility.yul\":1242:1246   */\n      0x00\n        /* \"#utility.yul\":1280:1282   */\n      0x20\n        /* \"#utility.yul\":1269:1278   */\n      dup3\n        /* \"#utility.yul\":1265:1283   */\n      add\n        /* \"#utility.yul\":1257:1283   */\n      swap1\n      pop\n        /* \"#utility.yul\":1293:1364   */\n      tag_127\n        /* \"#utility.yul\":1361:1362   */\n      0x00\n        /* \"#utility.yul\":1350:1359   */\n      dup4\n        /* \"#utility.yul\":1346:1363   */\n      add\n        /* \"#utility.yul\":1337:1343   */\n      dup5\n        /* \"#utility.yul\":1293:1364   */\n      tag_92\n      jump\t// in\n    tag_127:\n        /* \"#utility.yul\":1149:1371   */\n      swap3\n      swap2\n      pop\n      pop\n      jump\t// out\n        /* \"#utility.yul\":1377:1851   */\n    tag_20:\n        /* \"#utility.yul\":1445:1451   */\n      0x00\n        /* \"#utility.yul\":1453:1459   */\n      dup1\n        /* \"#utility.yul\":1502:1504   */\n      0x40\n        /* \"#utility.yul\":1490:1499   */\n      dup4\n        /* \"#utility.yul\":1481:1488   */\n      dup6\n        /* \"#utility.yul\":1477:1500   */\n      sub\n        /* \"#utility.yul\":1473:1505   */\n      slt\n        /* \"#utility.yul\":1470:1589   */\n      iszero\n      tag_129\n      jumpi\n        /* \"#utility.yul\":1508:1587   */\n      tag_130\n      tag_87\n      jump\t// in\n    tag_130:\n        /* \"#utility.yul\":1470:1589   */\n    tag_129:\n        /* \"#utility.yul\":1628:1629   */\n      0x00\n        /* \"#utility.yul\":1653:1706   */\n      tag_131\n        /* \"#utility.yul\":1698:1705   */\n      dup6\n        /* \"#utility.yul\":1689:1695   */\n      dup3\n        /* \"#utility.yul\":1678:1687   */\n      dup7\n        /* \"#utility.yul\":1674:1696   */\n      add\n        /* \"#utility.yul\":1653:1706   */\n      tag_91\n      jump\t// in\n    tag_131:\n        /* \"#utility.yul\":1643:1706   */\n      swap3\n      pop\n        /* \"#utility.yul\":1599:1716   */\n      pop\n        /* \"#utility.yul\":1755:1757   */\n      0x20\n        /* \"#utility.yul\":1781:1834   */\n      tag_132\n        /* \"#utility.yul\":1826:1833   */\n      dup6\n        /* \"#utility.yul\":1817:1823   */\n      dup3\n        /* \"#utility.yul\":1806:1815   */\n      dup7\n        /* \"#utility.yul\":1802:1824   */\n      add\n        /* \"#utility.yul\":1781:1834   */\n      tag_91\n      jump\t// in\n    tag_132:\n        /* \"#utility.yul\":1771:1834   */\n      swap2\n      pop\n        /* \"#utility.yul\":1726:1844   */\n      pop\n        /* \"#utility.yul\":1377:1851   */\n      swap3\n      pop\n      swap3\n      swap1\n      pop\n      jump\t// out\n        /* \"#utility.yul\":1857:1983   */\n    tag_93:\n        /* \"#utility.yul\":1894:1901   */\n      0x00\n        /* \"#utility.yul\":1934:1976   */\n      0xffffffffffffffffffffffffffffffffffffffff\n        /* \"#utility.yul\":1927:1932   */\n      dup3\n        /* \"#utility.yul\":1923:1977   */\n      and\n        /* \"#utility.yul\":1912:1977   */\n      swap1\n      pop\n        /* \"#utility.yul\":1857:1983   */\n      swap2\n      swap1\n      pop\n      jump\t// out\n        /* \"#utility.yul\":1989:2093   */\n    tag_94:\n        /* \"#utility.yul\":2034:2041   */\n      0x00\n        /* \"#utility.yul\":2063:2087   */\n      tag_135\n        /* \"#utility.yul\":2081:2086   */\n      dup3\n        /* \"#utility.yul\":2063:2087   */\n      tag_93\n      jump\t// in\n    tag_135:\n        /* \"#utility.yul\":2052:2087   */\n      swap1\n      pop\n        /* \"#utility.yul\":1989:2093   */\n      swap2\n      swap1\n      pop\n      jump\t// out\n        /* \"#utility.yul\":2099:2237   */\n    tag_95:\n        /* \"#utility.yul\":2180:2212   */\n      tag_137\n        /* \"#utility.yul\":2206:2211   */\n      dup2\n        /* \"#utility.yul\":2180:2212   */\n      tag_94\n      jump\t// in\n    tag_137:\n        /* \"#utility.yul\":2173:2178   */\n      dup2\n        /* \"#utility.yul\":2170:2213   */\n      eq\n        /* \"#utility.yul\":2160:2231   */\n      tag_138\n      jumpi\n        /* \"#utility.yul\":2227:2228   */\n      0x00\n        /* \"#utility.yul\":2224:2225   */\n      dup1\n        /* \"#utility.yul\":2217:2229   */\n      revert\n        /* \"#utility.yul\":2160:2231   */\n    tag_138:\n        /* \"#utility.yul\":2099:2237   */\n      pop\n      jump\t// out\n        /* \"#utility.yul\":2243:2398   */\n    tag_96:\n        /* \"#utility.yul\":2297:2302   */\n      0x00\n        /* \"#utility.yul\":2335:2341   */\n      dup2\n        /* \"#utility.yul\":2322:2342   */\n      calldataload\n        /* \"#utility.yul\":2313:2342   */\n      swap1\n      pop\n        /* \"#utility.yul\":2351:2392   */\n      tag_140\n        /* \"#utility.yul\":2386:2391   */\n      dup2\n        /* \"#utility.yul\":2351:2392   */\n      tag_95\n      jump\t// in\n    tag_140:\n        /* \"#utility.yul\":2243:2398   */\n      swap3\n      swap2\n      pop\n      pop\n      jump\t// out\n        /* \"#utility.yul\":2404:2894   */\n    tag_25:\n        /* \"#utility.yul\":2480:2486   */\n      0x00\n        /* \"#utility.yul\":2488:2494   */\n      dup1\n        /* \"#utility.yul\":2537:2539   */\n      0x40\n        /* \"#utility.yul\":2525:2534   */\n      dup4\n        /* \"#utility.yul\":2516:2523   */\n      dup6\n        /* \"#utility.yul\":2512:2535   */\n      sub\n        /* \"#utility.yul\":2508:2540   */\n      slt\n        /* \"#utility.yul\":2505:2624   */\n      iszero\n      tag_142\n      jumpi\n        /* \"#utility.yul\":2543:2622   */\n      tag_143\n      tag_87\n      jump\t// in\n    tag_143:\n        /* \"#utility.yul\":2505:2624   */\n    tag_142:\n        /* \"#utility.yul\":2663:2664   */\n      0x00\n        /* \"#utility.yul\":2688:2741   */\n      tag_144\n        /* \"#utility.yul\":2733:2740   */\n      dup6\n        /* \"#utility.yul\":2724:2730   */\n      dup3\n        /* \"#utility.yul\":2713:2722   */\n      dup7\n        /* \"#utility.yul\":2709:2731   */\n      add\n        /* \"#utility.yul\":2688:2741   */\n      tag_91\n      jump\t// in\n    tag_144:\n        /* \"#utility.yul\":2678:2741   */\n      swap3\n      pop\n        /* \"#utility.yul\":2634:2751   */\n      pop\n        /* \"#utility.yul\":2790:2792   */\n      0x20\n        /* \"#utility.yul\":2816:2877   */\n      tag_145\n        /* \"#utility.yul\":2869:2876   */\n      dup6\n        /* \"#utility.yul\":2860:2866   */\n      dup3\n        /* \"#utility.yul\":2849:2858   */\n      dup7\n        /* \"#utility.yul\":2845:2867   */\n      add\n        /* \"#utility.yul\":2816:2877   */\n      tag_96\n      jump\t// in\n    tag_145:\n        /* \"#utility.yul\":2806:2877   */\n      swap2\n      pop\n        /* \"#utility.yul\":2761:2887   */\n      pop\n        /* \"#utility.yul\":2404:2894   */\n      swap3\n      pop\n      swap3\n      swap1\n      pop\n      jump\t// out\n        /* \"#utility.yul\":2900:3232   */\n    tag_31:\n        /* \"#utility.yul\":3021:3025   */\n      0x00\n        /* \"#utility.yul\":3059:3061   */\n      0x40\n        /* \"#utility.yul\":3048:3057   */\n      dup3\n        /* \"#utility.yul\":3044:3062   */\n      add\n        /* \"#utility.yul\":3036:3062   */\n      swap1\n      pop\n        /* \"#utility.yul\":3072:3143   */\n      tag_147\n        /* \"#utility.yul\":3140:3141   */\n      0x00\n        /* \"#utility.yul\":3129:3138   */\n      dup4\n        /* \"#utility.yul\":3125:3142   */\n      add\n        /* \"#utility.yul\":3116:3122   */\n      dup6\n        /* \"#utility.yul\":3072:3143   */\n      tag_92\n      jump\t// in\n    tag_147:\n        /* \"#utility.yul\":3153:3225   */\n      tag_148\n        /* \"#utility.yul\":3221:3223   */\n      0x20\n        /* \"#utility.yul\":3210:3219   */\n      dup4\n        /* \"#utility.yul\":3206:3224   */\n      add\n        /* \"#utility.yul\":3197:3203   */\n      dup5\n        /* \"#utility.yul\":3153:3225   */\n      tag_92\n      jump\t// in\n    tag_148:\n        /* \"#utility.yul\":2900:3232   */\n      swap4\n      swap3\n      pop\n      pop\n      pop\n      jump\t// out\n        /* \"#utility.yul\":3238:3344   */\n    tag_97:\n        /* \"#utility.yul\":3282:3290   */\n      0x00\n        /* \"#utility.yul\":3331:3336   */\n      dup2\n        /* \"#utility.yul\":3326:3329   */\n      0xe0\n        /* \"#utility.yul\":3322:3337   */\n      shr\n        /* \"#utility.yul\":3301:3337   */\n      swap1\n      pop\n        /* \"#utility.yul\":3238:3344   */\n      swap2\n      swap1\n      pop\n      jump\t// out\n        /* \"#utility.yul\":3350:3533   */\n    tag_39:\n        /* \"#utility.yul\":3385:3388   */\n      0x00\n        /* \"#utility.yul\":3423:3424   */\n      0x03\n        /* \"#utility.yul\":3405:3421   */\n      returndatasize\n        /* \"#utility.yul\":3402:3425   */\n      gt\n        /* \"#utility.yul\":3399:3527   */\n      iszero\n      tag_151\n      jumpi\n        /* \"#utility.yul\":3461:3462   */\n      0x04\n        /* \"#utility.yul\":3458:3459   */\n      0x00\n        /* \"#utility.yul\":3455:3456   */\n      dup1\n        /* \"#utility.yul\":3440:3463   */\n      returndatacopy\n        /* \"#utility.yul\":3483:3517   */\n      tag_152\n        /* \"#utility.yul\":3514:3515   */\n      0x00\n        /* \"#utility.yul\":3508:3516   */\n      mload\n        /* \"#utility.yul\":3483:3517   */\n      tag_97\n      jump\t// in\n    tag_152:\n        /* \"#utility.yul\":3476:3517   */\n      swap1\n      pop\n        /* \"#utility.yul\":3399:3527   */\n    tag_151:\n        /* \"#utility.yul\":3350:3533   */\n      swap1\n      jump\t// out\n        /* \"#utility.yul\":3539:3641   */\n    tag_98:\n        /* \"#utility.yul\":3580:3586   */\n      0x00\n        /* \"#utility.yul\":3631:3633   */\n      0x1f\n        /* \"#utility.yul\":3627:3634   */\n      not\n        /* \"#utility.yul\":3622:3624   */\n      0x1f\n        /* \"#utility.yul\":3615:3620   */\n      dup4\n        /* \"#utility.yul\":3611:3625   */\n      add\n        /* \"#utility.yul\":3607:3635   */\n      and\n        /* \"#utility.yul\":3597:3635   */\n      swap1\n      pop\n        /* \"#utility.yul\":3539:3641   */\n      swap2\n      swap1\n      pop\n      jump\t// out\n        /* \"#utility.yul\":3647:3827   */\n    tag_99:\n        /* \"#utility.yul\":3695:3772   */\n      0x4e487b7100000000000000000000000000000000000000000000000000000000\n        /* \"#utility.yul\":3692:3693   */\n      0x00\n        /* \"#utility.yul\":3685:3773   */\n      mstore\n        /* \"#utility.yul\":3792:3796   */\n      0x41\n        /* \"#utility.yul\":3789:3790   */\n      0x04\n        /* \"#utility.yul\":3782:3797   */\n      mstore\n        /* \"#utility.yul\":3816:3820   */\n      0x24\n        /* \"#utility.yul\":3813:3814   */\n      0x00\n        /* \"#utility.yul\":3806:3821   */\n      revert\n        /* \"#utility.yul\":3833:4114   */\n    tag_100:\n        /* \"#utility.yul\":3916:3943   */\n      tag_156\n        /* \"#utility.yul\":3938:3942   */\n      dup3\n        /* \"#utility.yul\":3916:3943   */\n      tag_98\n      jump\t// in\n    tag_156:\n        /* \"#utility.yul\":3908:3914   */\n      dup2\n        /* \"#utility.yul\":3904:3944   */\n      add\n        /* \"#utility.yul\":4046:4052   */\n      dup2\n        /* \"#utility.yul\":4034:4044   */\n      dup2\n        /* \"#utility.yul\":4031:4053   */\n      lt\n        /* \"#utility.yul\":4010:4028   */\n      0xffffffffffffffff\n        /* \"#utility.yul\":3998:4008   */\n      dup3\n        /* \"#utility.yul\":3995:4029   */\n      gt\n        /* \"#utility.yul\":3992:4054   */\n      or\n        /* \"#utility.yul\":3989:4077   */\n      iszero\n      tag_157\n      jumpi\n        /* \"#utility.yul\":4057:4075   */\n      tag_158\n      tag_99\n      jump\t// in\n    tag_158:\n        /* \"#utility.yul\":3989:4077   */\n    tag_157:\n        /* \"#utility.yul\":4097:4107   */\n      dup1\n        /* \"#utility.yul\":4093:4095   */\n      0x40\n        /* \"#utility.yul\":4086:4108   */\n      mstore\n        /* \"#utility.yul\":3876:4114   */\n      pop\n        /* \"#utility.yul\":3833:4114   */\n      pop\n      pop\n      jump\t// out\n        /* \"#utility.yul\":4120:4831   */\n    tag_41:\n        /* \"#utility.yul\":4159:4162   */\n      0x00\n        /* \"#utility.yul\":4197:4201   */\n      0x44\n        /* \"#utility.yul\":4179:4195   */\n      returndatasize\n        /* \"#utility.yul\":4176:4202   */\n      lt\n        /* \"#utility.yul\":4205:4210   */\n      tag_159\n        /* \"#utility.yul\":4173:4212   */\n      jumpi\n        /* \"#utility.yul\":4234:4254   */\n      tag_161\n      tag_86\n      jump\t// in\n    tag_161:\n        /* \"#utility.yul\":4309:4310   */\n      0x04\n        /* \"#utility.yul\":4291:4307   */\n      returndatasize\n        /* \"#utility.yul\":4287:4311   */\n      sub\n        /* \"#utility.yul\":4284:4285   */\n      0x04\n        /* \"#utility.yul\":4278:4282   */\n      dup3\n        /* \"#utility.yul\":4263:4312   */\n      returndatacopy\n        /* \"#utility.yul\":4342:4346   */\n      dup1\n        /* \"#utility.yul\":4336:4347   */\n      mload\n        /* \"#utility.yul\":4441:4457   */\n      returndatasize\n        /* \"#utility.yul\":4434:4438   */\n      0x24\n        /* \"#utility.yul\":4426:4432   */\n      dup3\n        /* \"#utility.yul\":4422:4439   */\n      add\n        /* \"#utility.yul\":4419:4458   */\n      gt\n        /* \"#utility.yul\":4386:4404   */\n      0xffffffffffffffff\n        /* \"#utility.yul\":4378:4384   */\n      dup3\n        /* \"#utility.yul\":4375:4405   */\n      gt\n        /* \"#utility.yul\":4359:4472   */\n      or\n        /* \"#utility.yul\":4356:4502   */\n      iszero\n      tag_162\n      jumpi\n        /* \"#utility.yul\":4487:4492   */\n      pop\n      pop\n      jump(tag_159)\n        /* \"#utility.yul\":4356:4502   */\n    tag_162:\n        /* \"#utility.yul\":4533:4539   */\n      dup1\n        /* \"#utility.yul\":4527:4531   */\n      dup3\n        /* \"#utility.yul\":4523:4540   */\n      add\n        /* \"#utility.yul\":4569:4572   */\n      dup1\n        /* \"#utility.yul\":4563:4573   */\n      mload\n        /* \"#utility.yul\":4596:4614   */\n      0xffffffffffffffff\n        /* \"#utility.yul\":4588:4594   */\n      dup2\n        /* \"#utility.yul\":4585:4615   */\n      gt\n        /* \"#utility.yul\":4582:4625   */\n      iszero\n      tag_163\n      jumpi\n        /* \"#utility.yul\":4618:4623   */\n      pop\n      pop\n      pop\n      pop\n      jump(tag_159)\n        /* \"#utility.yul\":4582:4625   */\n    tag_163:\n        /* \"#utility.yul\":4666:4672   */\n      dup1\n        /* \"#utility.yul\":4659:4663   */\n      0x20\n        /* \"#utility.yul\":4654:4657   */\n      dup4\n        /* \"#utility.yul\":4650:4664   */\n      add\n        /* \"#utility.yul\":4646:4673   */\n      add\n        /* \"#utility.yul\":4725:4726   */\n      0x04\n        /* \"#utility.yul\":4707:4723   */\n      returndatasize\n        /* \"#utility.yul\":4703:4727   */\n      sub\n        /* \"#utility.yul\":4697:4701   */\n      dup6\n        /* \"#utility.yul\":4693:4728   */\n      add\n        /* \"#utility.yul\":4688:4691   */\n      dup2\n        /* \"#utility.yul\":4685:4729   */\n      gt\n        /* \"#utility.yul\":4682:4739   */\n      iszero\n      tag_164\n      jumpi\n        /* \"#utility.yul\":4732:4737   */\n      pop\n      pop\n      pop\n      pop\n      pop\n      jump(tag_159)\n        /* \"#utility.yul\":4682:4739   */\n    tag_164:\n        /* \"#utility.yul\":4749:4806   */\n      tag_165\n        /* \"#utility.yul\":4797:4803   */\n      dup3\n        /* \"#utility.yul\":4791:4795   */\n      0x20\n        /* \"#utility.yul\":4787:4804   */\n      add\n        /* \"#utility.yul\":4779:4785   */\n      dup6\n        /* \"#utility.yul\":4775:4805   */\n      add\n        /* \"#utility.yul\":4769:4773   */\n      dup7\n        /* \"#utility.yul\":4749:4806   */\n      tag_100\n      jump\t// in\n    tag_165:\n        /* \"#utility.yul\":4822:4825   */\n      dup3\n        /* \"#utility.yul\":4815:4825   */\n      swap6\n      pop\n        /* \"#utility.yul\":4163:4831   */\n      pop\n      pop\n      pop\n      pop\n      pop\n        /* \"#utility.yul\":4120:4831   */\n    tag_159:\n      swap1\n      jump\t// out\n        /* \"#utility.yul\":4837:4936   */\n    tag_101:\n        /* \"#utility.yul\":4889:4895   */\n      0x00\n        /* \"#utility.yul\":4923:4928   */\n      dup2\n        /* \"#utility.yul\":4917:4929   */\n      mload\n        /* \"#utility.yul\":4907:4929   */\n      swap1\n      pop\n        /* \"#utility.yul\":4837:4936   */\n      swap2\n      swap1\n      pop\n      jump\t// out\n        /* \"#utility.yul\":4942:5111   */\n    tag_102:\n        /* \"#utility.yul\":5026:5037   */\n      0x00\n        /* \"#utility.yul\":5060:5066   */\n      dup3\n        /* \"#utility.yul\":5055:5058   */\n      dup3\n        /* \"#utility.yul\":5048:5067   */\n      mstore\n        /* \"#utility.yul\":5100:5104   */\n      0x20\n        /* \"#utility.yul\":5095:5098   */\n      dup3\n        /* \"#utility.yul\":5091:5105   */\n      add\n        /* \"#utility.yul\":5076:5105   */\n      swap1\n      pop\n        /* \"#utility.yul\":4942:5111   */\n      swap3\n      swap2\n      pop\n      pop\n      jump\t// out\n        /* \"#utility.yul\":5117:5363   */\n    tag_103:\n        /* \"#utility.yul\":5198:5199   */\n      0x00\n        /* \"#utility.yul\":5208:5321   */\n    tag_169:\n        /* \"#utility.yul\":5222:5228   */\n      dup4\n        /* \"#utility.yul\":5219:5220   */\n      dup2\n        /* \"#utility.yul\":5216:5229   */\n      lt\n        /* \"#utility.yul\":5208:5321   */\n      iszero\n      tag_171\n      jumpi\n        /* \"#utility.yul\":5307:5308   */\n      dup1\n        /* \"#utility.yul\":5302:5305   */\n      dup3\n        /* \"#utility.yul\":5298:5309   */\n      add\n        /* \"#utility.yul\":5292:5310   */\n      mload\n        /* \"#utility.yul\":5288:5289   */\n      dup2\n        /* \"#utility.yul\":5283:5286   */\n      dup5\n        /* \"#utility.yul\":5279:5290   */\n      add\n        /* \"#utility.yul\":5272:5311   */\n      mstore\n        /* \"#utility.yul\":5244:5246   */\n      0x20\n        /* \"#utility.yul\":5241:5242   */\n      dup2\n        /* \"#utility.yul\":5237:5247   */\n      add\n        /* \"#utility.yul\":5232:5247   */\n      swap1\n      pop\n        /* \"#utility.yul\":5208:5321   */\n      jump(tag_169)\n    tag_171:\n        /* \"#utility.yul\":5355:5356   */\n      0x00\n        /* \"#utility.yul\":5346:5352   */\n      dup5\n        /* \"#utility.yul\":5341:5344   */\n      dup5\n        /* \"#utility.yul\":5337:5353   */\n      add\n        /* \"#utility.yul\":5330:5357   */\n      mstore\n        /* \"#utility.yul\":5179:5363   */\n      pop\n        /* \"#utility.yul\":5117:5363   */\n      pop\n      pop\n      pop\n      jump\t// out\n        /* \"#utility.yul\":5369:5746   */\n    tag_104:\n        /* \"#utility.yul\":5457:5460   */\n      0x00\n        /* \"#utility.yul\":5485:5524   */\n      tag_173\n        /* \"#utility.yul\":5518:5523   */\n      dup3\n        /* \"#utility.yul\":5485:5524   */\n      tag_101\n      jump\t// in\n    tag_173:\n        /* \"#utility.yul\":5540:5611   */\n      tag_174\n        /* \"#utility.yul\":5604:5610   */\n      dup2\n        /* \"#utility.yul\":5599:5602   */\n      dup6\n        /* \"#utility.yul\":5540:5611   */\n      tag_102\n      jump\t// in\n    tag_174:\n        /* \"#utility.yul\":5533:5611   */\n      swap4\n      pop\n        /* \"#utility.yul\":5620:5685   */\n      tag_175\n        /* \"#utility.yul\":5678:5684   */\n      dup2\n        /* \"#utility.yul\":5673:5676   */\n      dup6\n        /* \"#utility.yul\":5666:5670   */\n      0x20\n        /* \"#utility.yul\":5659:5664   */\n      dup7\n        /* \"#utility.yul\":5655:5671   */\n      add\n        /* \"#utility.yul\":5620:5685   */\n      tag_103\n      jump\t// in\n    tag_175:\n        /* \"#utility.yul\":5710:5739   */\n      tag_176\n        /* \"#utility.yul\":5732:5738   */\n      dup2\n        /* \"#utility.yul\":5710:5739   */\n      tag_98\n      jump\t// in\n    tag_176:\n        /* \"#utility.yul\":5705:5708   */\n      dup5\n        /* \"#utility.yul\":5701:5740   */\n      add\n        /* \"#utility.yul\":5694:5740   */\n      swap2\n      pop\n        /* \"#utility.yul\":5461:5746   */\n      pop\n        /* \"#utility.yul\":5369:5746   */\n      swap3\n      swap2\n      pop\n      pop\n      jump\t// out\n        /* \"#utility.yul\":5752:6065   */\n    tag_44:\n        /* \"#utility.yul\":5865:5869   */\n      0x00\n        /* \"#utility.yul\":5903:5905   */\n      0x20\n        /* \"#utility.yul\":5892:5901   */\n      dup3\n        /* \"#utility.yul\":5888:5906   */\n      add\n        /* \"#utility.yul\":5880:5906   */\n      swap1\n      pop\n        /* \"#utility.yul\":5952:5961   */\n      dup2\n        /* \"#utility.yul\":5946:5950   */\n      dup2\n        /* \"#utility.yul\":5942:5962   */\n      sub\n        /* \"#utility.yul\":5938:5939   */\n      0x00\n        /* \"#utility.yul\":5927:5936   */\n      dup4\n        /* \"#utility.yul\":5923:5940   */\n      add\n        /* \"#utility.yul\":5916:5963   */\n      mstore\n        /* \"#utility.yul\":5980:6058   */\n      tag_178\n        /* \"#utility.yul\":6053:6057   */\n      dup2\n        /* \"#utility.yul\":6044:6050   */\n      dup5\n        /* \"#utility.yul\":5980:6058   */\n      tag_104\n      jump\t// in\n    tag_178:\n        /* \"#utility.yul\":5972:6058   */\n      swap1\n      pop\n        /* \"#utility.yul\":5752:6065   */\n      swap3\n      swap2\n      pop\n      pop\n      jump\t// out\n        /* \"#utility.yul\":6071:6293   */\n    tag_105:\n        /* \"#utility.yul\":6211:6245   */\n      0x596f752063616e2774207370656e64206d6f7265207468616e20796f75206861\n        /* \"#utility.yul\":6207:6208   */\n      0x00\n        /* \"#utility.yul\":6199:6205   */\n      dup3\n        /* \"#utility.yul\":6195:6209   */\n      add\n        /* \"#utility.yul\":6188:6246   */\n      mstore\n        /* \"#utility.yul\":6280:6285   */\n      0x76652e0000000000000000000000000000000000000000000000000000000000\n        /* \"#utility.yul\":6275:6277   */\n      0x20\n        /* \"#utility.yul\":6267:6273   */\n      dup3\n        /* \"#utility.yul\":6263:6278   */\n      add\n        /* \"#utility.yul\":6256:6286   */\n      mstore\n        /* \"#utility.yul\":6071:6293   */\n      pop\n      jump\t// out\n        /* \"#utility.yul\":6299:6665   */\n    tag_106:\n        /* \"#utility.yul\":6441:6444   */\n      0x00\n        /* \"#utility.yul\":6462:6529   */\n      tag_181\n        /* \"#utility.yul\":6526:6528   */\n      0x23\n        /* \"#utility.yul\":6521:6524   */\n      dup4\n        /* \"#utility.yul\":6462:6529   */\n      tag_102\n      jump\t// in\n    tag_181:\n        /* \"#utility.yul\":6455:6529   */\n      swap2\n      pop\n        /* \"#utility.yul\":6538:6631   */\n      tag_182\n        /* \"#utility.yul\":6627:6630   */\n      dup3\n        /* \"#utility.yul\":6538:6631   */\n      tag_105\n      jump\t// in\n    tag_182:\n        /* \"#utility.yul\":6656:6658   */\n      0x40\n        /* \"#utility.yul\":6651:6654   */\n      dup3\n        /* \"#utility.yul\":6647:6659   */\n      add\n        /* \"#utility.yul\":6640:6659   */\n      swap1\n      pop\n        /* \"#utility.yul\":6299:6665   */\n      swap2\n      swap1\n      pop\n      jump\t// out\n        /* \"#utility.yul\":6671:7090   */\n    tag_54:\n        /* \"#utility.yul\":6837:6841   */\n      0x00\n        /* \"#utility.yul\":6875:6877   */\n      0x20\n        /* \"#utility.yul\":6864:6873   */\n      dup3\n        /* \"#utility.yul\":6860:6878   */\n      add\n        /* \"#utility.yul\":6852:6878   */\n      swap1\n      pop\n        /* \"#utility.yul\":6924:6933   */\n      dup2\n        /* \"#utility.yul\":6918:6922   */\n      dup2\n        /* \"#utility.yul\":6914:6934   */\n      sub\n        /* \"#utility.yul\":6910:6911   */\n      0x00\n        /* \"#utility.yul\":6899:6908   */\n      dup4\n        /* \"#utility.yul\":6895:6912   */\n      add\n        /* \"#utility.yul\":6888:6935   */\n      mstore\n        /* \"#utility.yul\":6952:7083   */\n      tag_184\n        /* \"#utility.yul\":7078:7082   */\n      dup2\n        /* \"#utility.yul\":6952:7083   */\n      tag_106\n      jump\t// in\n    tag_184:\n        /* \"#utility.yul\":6944:7083   */\n      swap1\n      pop\n        /* \"#utility.yul\":6671:7090   */\n      swap2\n      swap1\n      pop\n      jump\t// out\n        /* \"#utility.yul\":7096:7275   */\n    tag_107:\n        /* \"#utility.yul\":7236:7267   */\n      0x416d6f756e742068617320746f206265206d6f7265207468616e20302e000000\n        /* \"#utility.yul\":7232:7233   */\n      0x00\n        /* \"#utility.yul\":7224:7230   */\n      dup3\n        /* \"#utility.yul\":7220:7234   */\n      add\n        /* \"#utility.yul\":7213:7268   */\n      mstore\n        /* \"#utility.yul\":7096:7275   */\n      pop\n      jump\t// out\n        /* \"#utility.yul\":7281:7647   */\n    tag_108:\n        /* \"#utility.yul\":7423:7426   */\n      0x00\n        /* \"#utility.yul\":7444:7511   */\n      tag_187\n        /* \"#utility.yul\":7508:7510   */\n      0x1d\n        /* \"#utility.yul\":7503:7506   */\n      dup4\n        /* \"#utility.yul\":7444:7511   */\n      tag_102\n      jump\t// in\n    tag_187:\n        /* \"#utility.yul\":7437:7511   */\n      swap2\n      pop\n        /* \"#utility.yul\":7520:7613   */\n      tag_188\n        /* \"#utility.yul\":7609:7612   */\n      dup3\n        /* \"#utility.yul\":7520:7613   */\n      tag_107\n      jump\t// in\n    tag_188:\n        /* \"#utility.yul\":7638:7640   */\n      0x20\n        /* \"#utility.yul\":7633:7636   */\n      dup3\n        /* \"#utility.yul\":7629:7641   */\n      add\n        /* \"#utility.yul\":7622:7641   */\n      swap1\n      pop\n        /* \"#utility.yul\":7281:7647   */\n      swap2\n      swap1\n      pop\n      jump\t// out\n        /* \"#utility.yul\":7653:8072   */\n    tag_57:\n        /* \"#utility.yul\":7819:7823   */\n      0x00\n        /* \"#utility.yul\":7857:7859   */\n      0x20\n        /* \"#utility.yul\":7846:7855   */\n      dup3\n        /* \"#utility.yul\":7842:7860   */\n      add\n        /* \"#utility.yul\":7834:7860   */\n      swap1\n      pop\n        /* \"#utility.yul\":7906:7915   */\n      dup2\n        /* \"#utility.yul\":7900:7904   */\n      dup2\n        /* \"#utility.yul\":7896:7916   */\n      sub\n        /* \"#utility.yul\":7892:7893   */\n      0x00\n        /* \"#utility.yul\":7881:7890   */\n      dup4\n        /* \"#utility.yul\":7877:7894   */\n      add\n        /* \"#utility.yul\":7870:7917   */\n      mstore\n        /* \"#utility.yul\":7934:8065   */\n      tag_190\n        /* \"#utility.yul\":8060:8064   */\n      dup2\n        /* \"#utility.yul\":7934:8065   */\n      tag_108\n      jump\t// in\n    tag_190:\n        /* \"#utility.yul\":7926:8065   */\n      swap1\n      pop\n        /* \"#utility.yul\":7653:8072   */\n      swap2\n      swap1\n      pop\n      jump\t// out\n        /* \"#utility.yul\":8078:8258   */\n    tag_78:\n        /* \"#utility.yul\":8126:8203   */\n      0x4e487b7100000000000000000000000000000000000000000000000000000000\n        /* \"#utility.yul\":8123:8124   */\n      0x00\n        /* \"#utility.yul\":8116:8204   */\n      mstore\n        /* \"#utility.yul\":8223:8227   */\n      0x01\n        /* \"#utility.yul\":8220:8221   */\n      0x04\n        /* \"#utility.yul\":8213:8228   */\n      mstore\n        /* \"#utility.yul\":8247:8251   */\n      0x24\n        /* \"#utility.yul\":8244:8245   */\n      0x00\n        /* \"#utility.yul\":8237:8252   */\n      revert\n        /* \"#utility.yul\":8264:8444   */\n    tag_109:\n        /* \"#utility.yul\":8312:8389   */\n      0x4e487b7100000000000000000000000000000000000000000000000000000000\n        /* \"#utility.yul\":8309:8310   */\n      0x00\n        /* \"#utility.yul\":8302:8390   */\n      mstore\n        /* \"#utility.yul\":8409:8413   */\n      0x11\n        /* \"#utility.yul\":8406:8407   */\n      0x04\n        /* \"#utility.yul\":8399:8414   */\n      mstore\n        /* \"#utility.yul\":8433:8437   */\n      0x24\n        /* \"#utility.yul\":8430:8431   */\n      0x00\n        /* \"#utility.yul\":8423:8438   */\n      revert\n        /* \"#utility.yul\":8450:8644   */\n    tag_80:\n        /* \"#utility.yul\":8490:8494   */\n      0x00\n        /* \"#utility.yul\":8510:8530   */\n      tag_194\n        /* \"#utility.yul\":8528:8529   */\n      dup3\n        /* \"#utility.yul\":8510:8530   */\n      tag_89\n      jump\t// in\n    tag_194:\n        /* \"#utility.yul\":8505:8530   */\n      swap2\n      pop\n        /* \"#utility.yul\":8544:8564   */\n      tag_195\n        /* \"#utility.yul\":8562:8563   */\n      dup4\n        /* \"#utility.yul\":8544:8564   */\n      tag_89\n      jump\t// in\n    tag_195:\n        /* \"#utility.yul\":8539:8564   */\n      swap3\n      pop\n        /* \"#utility.yul\":8588:8589   */\n      dup3\n        /* \"#utility.yul\":8585:8586   */\n      dup3\n        /* \"#utility.yul\":8581:8590   */\n      sub\n        /* \"#utility.yul\":8573:8590   */\n      swap1\n      pop\n        /* \"#utility.yul\":8612:8613   */\n      dup2\n        /* \"#utility.yul\":8606:8610   */\n      dup2\n        /* \"#utility.yul\":8603:8614   */\n      gt\n        /* \"#utility.yul\":8600:8637   */\n      iszero\n      tag_196\n      jumpi\n        /* \"#utility.yul\":8617:8635   */\n      tag_197\n      tag_109\n      jump\t// in\n    tag_197:\n        /* \"#utility.yul\":8600:8637   */\n    tag_196:\n        /* \"#utility.yul\":8450:8644   */\n      swap3\n      swap2\n      pop\n      pop\n      jump\t// out\n        /* \"#utility.yul\":8650:8841   */\n    tag_83:\n        /* \"#utility.yul\":8690:8693   */\n      0x00\n        /* \"#utility.yul\":8709:8729   */\n      tag_199\n        /* \"#utility.yul\":8727:8728   */\n      dup3\n        /* \"#utility.yul\":8709:8729   */\n      tag_89\n      jump\t// in\n    tag_199:\n        /* \"#utility.yul\":8704:8729   */\n      swap2\n      pop\n        /* \"#utility.yul\":8743:8763   */\n      tag_200\n        /* \"#utility.yul\":8761:8762   */\n      dup4\n        /* \"#utility.yul\":8743:8763   */\n      tag_89\n      jump\t// in\n    tag_200:\n        /* \"#utility.yul\":8738:8763   */\n      swap3\n      pop\n        /* \"#utility.yul\":8786:8787   */\n      dup3\n        /* \"#utility.yul\":8783:8784   */\n      dup3\n        /* \"#utility.yul\":8779:8788   */\n      add\n        /* \"#utility.yul\":8772:8788   */\n      swap1\n      pop\n        /* \"#utility.yul\":8807:8810   */\n      dup1\n        /* \"#utility.yul\":8804:8805   */\n      dup3\n        /* \"#utility.yul\":8801:8811   */\n      gt\n        /* \"#utility.yul\":8798:8834   */\n      iszero\n      tag_201\n      jumpi\n        /* \"#utility.yul\":8814:8832   */\n      tag_202\n      tag_109\n      jump\t// in\n    tag_202:\n        /* \"#utility.yul\":8798:8834   */\n    tag_201:\n        /* \"#utility.yul\":8650:8841   */\n      swap3\n      swap2\n      pop\n      pop\n      jump\t// out\n\n    auxdata: 0xa2646970667358221220d7a81e515103010564e6307b7ecff2afce43f63ceee734050838918ba16b54e264736f6c63430008120033\n}\n\nsub_1: assembly {\n        /* \"contracts/Smart_Wallet_Final/Balance_And_Amount.sol\":60:324  contract BalanceAndAmount {... */\n      mstore(0x40, 0x80)\n      callvalue\n      dup1\n      iszero\n      tag_1\n      jumpi\n      0x00\n      dup1\n      revert\n    tag_1:\n      pop\n      dataSize(sub_0)\n      dup1\n      dataOffset(sub_0)\n      0x00\n      codecopy\n      0x00\n      return\n    stop\n\n    sub_0: assembly {\n            /* \"contracts/Smart_Wallet_Final/Balance_And_Amount.sol\":60:324  contract BalanceAndAmount {... */\n          mstore(0x40, 0x80)\n          callvalue\n          dup1\n          iszero\n          tag_1\n          jumpi\n          0x00\n          dup1\n          revert\n        tag_1:\n          pop\n          jumpi(tag_2, lt(calldatasize, 0x04))\n          shr(0xe0, calldataload(0x00))\n          dup1\n          0x851de467\n          eq\n          tag_3\n          jumpi\n        tag_2:\n          0x00\n          dup1\n          revert\n            /* \"contracts/Smart_Wallet_Final/Balance_And_Amount.sol\":95:321  function amountController(uint amount, uint senderBalance) external pure {... */\n        tag_3:\n          tag_4\n          0x04\n          dup1\n          calldatasize\n          sub\n          dup2\n          add\n          swap1\n          tag_5\n          swap2\n          swap1\n          tag_6\n          jump\t// in\n        tag_5:\n          tag_7\n          jump\t// in\n        tag_4:\n          stop\n        tag_7:\n            /* \"contracts/Smart_Wallet_Final/Balance_And_Amount.sol\":197:210  senderBalance */\n          dup1\n            /* \"contracts/Smart_Wallet_Final/Balance_And_Amount.sol\":187:193  amount */\n          dup3\n            /* \"contracts/Smart_Wallet_Final/Balance_And_Amount.sol\":187:210  amount <= senderBalance */\n          gt\n          iszero\n            /* \"contracts/Smart_Wallet_Final/Balance_And_Amount.sol\":179:250  require(amount <= senderBalance, \"You can't spend more than you have.\") */\n          tag_9\n          jumpi\n          mload(0x40)\n          0x08c379a000000000000000000000000000000000000000000000000000000000\n          dup2\n          mstore\n          0x04\n          add\n          tag_10\n          swap1\n          tag_11\n          jump\t// in\n        tag_10:\n          mload(0x40)\n          dup1\n          swap2\n          sub\n          swap1\n          revert\n        tag_9:\n            /* \"contracts/Smart_Wallet_Final/Balance_And_Amount.sol\":278:279  0 */\n          0x00\n            /* \"contracts/Smart_Wallet_Final/Balance_And_Amount.sol\":269:275  amount */\n          dup3\n            /* \"contracts/Smart_Wallet_Final/Balance_And_Amount.sol\":269:279  amount > 0 */\n          gt\n            /* \"contracts/Smart_Wallet_Final/Balance_And_Amount.sol\":261:313  require(amount > 0, \"Amount has to be more than 0.\") */\n          tag_12\n          jumpi\n          mload(0x40)\n          0x08c379a000000000000000000000000000000000000000000000000000000000\n          dup2\n          mstore\n          0x04\n          add\n          tag_13\n          swap1\n          tag_14\n          jump\t// in\n        tag_13:\n          mload(0x40)\n          dup1\n          swap2\n          sub\n          swap1\n          revert\n        tag_12:\n            /* \"contracts/Smart_Wallet_Final/Balance_And_Amount.sol\":95:321  function amountController(uint amount, uint senderBalance) external pure {... */\n          pop\n          pop\n          jump\t// out\n            /* \"#utility.yul\":88:205   */\n        tag_16:\n            /* \"#utility.yul\":197:198   */\n          0x00\n            /* \"#utility.yul\":194:195   */\n          dup1\n            /* \"#utility.yul\":187:199   */\n          revert\n            /* \"#utility.yul\":334:411   */\n        tag_18:\n            /* \"#utility.yul\":371:378   */\n          0x00\n            /* \"#utility.yul\":400:405   */\n          dup2\n            /* \"#utility.yul\":389:405   */\n          swap1\n          pop\n            /* \"#utility.yul\":334:411   */\n          swap2\n          swap1\n          pop\n          jump\t// out\n            /* \"#utility.yul\":417:539   */\n        tag_19:\n            /* \"#utility.yul\":490:514   */\n          tag_32\n            /* \"#utility.yul\":508:513   */\n          dup2\n            /* \"#utility.yul\":490:514   */\n          tag_18\n          jump\t// in\n        tag_32:\n            /* \"#utility.yul\":483:488   */\n          dup2\n            /* \"#utility.yul\":480:515   */\n          eq\n            /* \"#utility.yul\":470:533   */\n          tag_33\n          jumpi\n            /* \"#utility.yul\":529:530   */\n          0x00\n            /* \"#utility.yul\":526:527   */\n          dup1\n            /* \"#utility.yul\":519:531   */\n          revert\n            /* \"#utility.yul\":470:533   */\n        tag_33:\n            /* \"#utility.yul\":417:539   */\n          pop\n          jump\t// out\n            /* \"#utility.yul\":545:684   */\n        tag_20:\n            /* \"#utility.yul\":591:596   */\n          0x00\n            /* \"#utility.yul\":629:635   */\n          dup2\n            /* \"#utility.yul\":616:636   */\n          calldataload\n            /* \"#utility.yul\":607:636   */\n          swap1\n          pop\n            /* \"#utility.yul\":645:678   */\n          tag_35\n            /* \"#utility.yul\":672:677   */\n          dup2\n            /* \"#utility.yul\":645:678   */\n          tag_19\n          jump\t// in\n        tag_35:\n            /* \"#utility.yul\":545:684   */\n          swap3\n          swap2\n          pop\n          pop\n          jump\t// out\n            /* \"#utility.yul\":690:1164   */\n        tag_6:\n            /* \"#utility.yul\":758:764   */\n          0x00\n            /* \"#utility.yul\":766:772   */\n          dup1\n            /* \"#utility.yul\":815:817   */\n          0x40\n            /* \"#utility.yul\":803:812   */\n          dup4\n            /* \"#utility.yul\":794:801   */\n          dup6\n            /* \"#utility.yul\":790:813   */\n          sub\n            /* \"#utility.yul\":786:818   */\n          slt\n            /* \"#utility.yul\":783:902   */\n          iszero\n          tag_37\n          jumpi\n            /* \"#utility.yul\":821:900   */\n          tag_38\n          tag_16\n          jump\t// in\n        tag_38:\n            /* \"#utility.yul\":783:902   */\n        tag_37:\n            /* \"#utility.yul\":941:942   */\n          0x00\n            /* \"#utility.yul\":966:1019   */\n          tag_39\n            /* \"#utility.yul\":1011:1018   */\n          dup6\n            /* \"#utility.yul\":1002:1008   */\n          dup3\n            /* \"#utility.yul\":991:1000   */\n          dup7\n            /* \"#utility.yul\":987:1009   */\n          add\n            /* \"#utility.yul\":966:1019   */\n          tag_20\n          jump\t// in\n        tag_39:\n            /* \"#utility.yul\":956:1019   */\n          swap3\n          pop\n            /* \"#utility.yul\":912:1029   */\n          pop\n            /* \"#utility.yul\":1068:1070   */\n          0x20\n            /* \"#utility.yul\":1094:1147   */\n          tag_40\n            /* \"#utility.yul\":1139:1146   */\n          dup6\n            /* \"#utility.yul\":1130:1136   */\n          dup3\n            /* \"#utility.yul\":1119:1128   */\n          dup7\n            /* \"#utility.yul\":1115:1137   */\n          add\n            /* \"#utility.yul\":1094:1147   */\n          tag_20\n          jump\t// in\n        tag_40:\n            /* \"#utility.yul\":1084:1147   */\n          swap2\n          pop\n            /* \"#utility.yul\":1039:1157   */\n          pop\n            /* \"#utility.yul\":690:1164   */\n          swap3\n          pop\n          swap3\n          swap1\n          pop\n          jump\t// out\n            /* \"#utility.yul\":1170:1339   */\n        tag_21:\n            /* \"#utility.yul\":1254:1265   */\n          0x00\n            /* \"#utility.yul\":1288:1294   */\n          dup3\n            /* \"#utility.yul\":1283:1286   */\n          dup3\n            /* \"#utility.yul\":1276:1295   */\n          mstore\n            /* \"#utility.yul\":1328:1332   */\n          0x20\n            /* \"#utility.yul\":1323:1326   */\n          dup3\n            /* \"#utility.yul\":1319:1333   */\n          add\n            /* \"#utility.yul\":1304:1333   */\n          swap1\n          pop\n            /* \"#utility.yul\":1170:1339   */\n          swap3\n          swap2\n          pop\n          pop\n          jump\t// out\n            /* \"#utility.yul\":1345:1567   */\n        tag_22:\n            /* \"#utility.yul\":1485:1519   */\n          0x596f752063616e2774207370656e64206d6f7265207468616e20796f75206861\n            /* \"#utility.yul\":1481:1482   */\n          0x00\n            /* \"#utility.yul\":1473:1479   */\n          dup3\n            /* \"#utility.yul\":1469:1483   */\n          add\n            /* \"#utility.yul\":1462:1520   */\n          mstore\n            /* \"#utility.yul\":1554:1559   */\n          0x76652e0000000000000000000000000000000000000000000000000000000000\n            /* \"#utility.yul\":1549:1551   */\n          0x20\n            /* \"#utility.yul\":1541:1547   */\n          dup3\n            /* \"#utility.yul\":1537:1552   */\n          add\n            /* \"#utility.yul\":1530:1560   */\n          mstore\n            /* \"#utility.yul\":1345:1567   */\n          pop\n          jump\t// out\n            /* \"#utility.yul\":1573:1939   */\n        tag_23:\n            /* \"#utility.yul\":1715:1718   */\n          0x00\n            /* \"#utility.yul\":1736:1803   */\n          tag_44\n            /* \"#utility.yul\":1800:1802   */\n          0x23\n            /* \"#utility.yul\":1795:1798   */\n          dup4\n            /* \"#utility.yul\":1736:1803   */\n          tag_21\n          jump\t// in\n        tag_44:\n            /* \"#utility.yul\":1729:1803   */\n          swap2\n          pop\n            /* \"#utility.yul\":1812:1905   */\n          tag_45\n            /* \"#utility.yul\":1901:1904   */\n          dup3\n            /* \"#utility.yul\":1812:1905   */\n          tag_22\n          jump\t// in\n        tag_45:\n            /* \"#utility.yul\":1930:1932   */\n          0x40\n            /* \"#utility.yul\":1925:1928   */\n          dup3\n            /* \"#utility.yul\":1921:1933   */\n          add\n            /* \"#utility.yul\":1914:1933   */\n          swap1\n          pop\n            /* \"#utility.yul\":1573:1939   */\n          swap2\n          swap1\n          pop\n          jump\t// out\n            /* \"#utility.yul\":1945:2364   */\n        tag_11:\n            /* \"#utility.yul\":2111:2115   */\n          0x00\n            /* \"#utility.yul\":2149:2151   */\n          0x20\n            /* \"#utility.yul\":2138:2147   */\n          dup3\n            /* \"#utility.yul\":2134:2152   */\n          add\n            /* \"#utility.yul\":2126:2152   */\n          swap1\n          pop\n            /* \"#utility.yul\":2198:2207   */\n          dup2\n            /* \"#utility.yul\":2192:2196   */\n          dup2\n            /* \"#utility.yul\":2188:2208   */\n          sub\n            /* \"#utility.yul\":2184:2185   */\n          0x00\n            /* \"#utility.yul\":2173:2182   */\n          dup4\n            /* \"#utility.yul\":2169:2186   */\n          add\n            /* \"#utility.yul\":2162:2209   */\n          mstore\n            /* \"#utility.yul\":2226:2357   */\n          tag_47\n            /* \"#utility.yul\":2352:2356   */\n          dup2\n            /* \"#utility.yul\":2226:2357   */\n          tag_23\n          jump\t// in\n        tag_47:\n            /* \"#utility.yul\":2218:2357   */\n          swap1\n          pop\n            /* \"#utility.yul\":1945:2364   */\n          swap2\n          swap1\n          pop\n          jump\t// out\n            /* \"#utility.yul\":2370:2549   */\n        tag_24:\n            /* \"#utility.yul\":2510:2541   */\n          0x416d6f756e742068617320746f206265206d6f7265207468616e20302e000000\n            /* \"#utility.yul\":2506:2507   */\n          0x00\n            /* \"#utility.yul\":2498:2504   */\n          dup3\n            /* \"#utility.yul\":2494:2508   */\n          add\n            /* \"#utility.yul\":2487:2542   */\n          mstore\n            /* \"#utility.yul\":2370:2549   */\n          pop\n          jump\t// out\n            /* \"#utility.yul\":2555:2921   */\n        tag_25:\n            /* \"#utility.yul\":2697:2700   */\n          0x00\n            /* \"#utility.yul\":2718:2785   */\n          tag_50\n            /* \"#utility.yul\":2782:2784   */\n          0x1d\n            /* \"#utility.yul\":2777:2780   */\n          dup4\n            /* \"#utility.yul\":2718:2785   */\n          tag_21\n          jump\t// in\n        tag_50:\n            /* \"#utility.yul\":2711:2785   */\n          swap2\n          pop\n            /* \"#utility.yul\":2794:2887   */\n          tag_51\n            /* \"#utility.yul\":2883:2886   */\n          dup3\n            /* \"#utility.yul\":2794:2887   */\n          tag_24\n          jump\t// in\n        tag_51:\n            /* \"#utility.yul\":2912:2914   */\n          0x20\n            /* \"#utility.yul\":2907:2910   */\n          dup3\n            /* \"#utility.yul\":2903:2915   */\n          add\n            /* \"#utility.yul\":2896:2915   */\n          swap1\n          pop\n            /* \"#utility.yul\":2555:2921   */\n          swap2\n          swap1\n          pop\n          jump\t// out\n            /* \"#utility.yul\":2927:3346   */\n        tag_14:\n            /* \"#utility.yul\":3093:3097   */\n          0x00\n            /* \"#utility.yul\":3131:3133   */\n          0x20\n            /* \"#utility.yul\":3120:3129   */\n          dup3\n            /* \"#utility.yul\":3116:3134   */\n          add\n            /* \"#utility.yul\":3108:3134   */\n          swap1\n          pop\n            /* \"#utility.yul\":3180:3189   */\n          dup2\n            /* \"#utility.yul\":3174:3178   */\n          dup2\n            /* \"#utility.yul\":3170:3190   */\n          sub\n            /* \"#utility.yul\":3166:3167   */\n          0x00\n            /* \"#utility.yul\":3155:3164   */\n          dup4\n            /* \"#utility.yul\":3151:3168   */\n          add\n            /* \"#utility.yul\":3144:3191   */\n          mstore\n            /* \"#utility.yul\":3208:3339   */\n          tag_53\n            /* \"#utility.yul\":3334:3338   */\n          dup2\n            /* \"#utility.yul\":3208:3339   */\n          tag_25\n          jump\t// in\n        tag_53:\n            /* \"#utility.yul\":3200:3339   */\n          swap1\n          pop\n            /* \"#utility.yul\":2927:3346   */\n          swap2\n          swap1\n          pop\n          jump\t// out\n\n        auxdata: 0xa26469706673582212200c8117a76e2cefbfe628c673f5709979cd2d7ef516610aebedc6d475bd7a616564736f6c63430008120033\n    }\n}\n",
				"bytecode": {
					"linkReferences": {},
					"object": "60806040526040516100109061007f565b604051809103906000f08015801561002c573d6000803e3d6000fd5b50600160006101000a81548173ffffffffffffffffffffffffffffffffffffffff021916908373ffffffffffffffffffffffffffffffffffffffff16021790555034801561007957600080fd5b5061008c565b6102b680610d1883390190565b610c7d8061009b6000396000f3fe60806040526004361061004a5760003560e01c80632e1a7d4d1461004f57806381b2d07b14610078578063851de467146100a3578063b7760c8f146100cc578063d0e30db0146100f5575b600080fd5b34801561005b57600080fd5b5061007660048036038101906100719190610754565b6100ff565b005b34801561008457600080fd5b5061008d610329565b60405161009a9190610790565b60405180910390f35b3480156100af57600080fd5b506100ca60048036038101906100c591906107ab565b610372565b005b3480156100d857600080fd5b506100f360048036038101906100ee9190610849565b6103fc565b005b6100fd610679565b005b60008060003373ffffffffffffffffffffffffffffffffffffffff1673ffffffffffffffffffffffffffffffffffffffff168152602001908152602001600020600101549050600160009054906101000a900473ffffffffffffffffffffffffffffffffffffffff1673ffffffffffffffffffffffffffffffffffffffff1663851de46783836040518363ffffffff1660e01b81526004016101a2929190610889565b60006040518083038186803b1580156101ba57600080fd5b505afa9250505080156101cb575060015b610244576101d76108bf565b806308c379a00361023357506101eb610952565b806101f65750610235565b7fc35a0ec6603ff0b5966d7ca053a5f0984a70aad58a9a0ecb1349308815a4151a816040516102259190610a61565b60405180910390a15061023f565b505b3d6000803e3d6000fd5b610325565b610298826000803373ffffffffffffffffffffffffffffffffffffffff1673ffffffffffffffffffffffffffffffffffffffff168152602001908152602001600020600101546106c190919063ffffffff16565b6000803373ffffffffffffffffffffffffffffffffffffffff1673ffffffffffffffffffffffffffffffffffffffff168152602001908152602001600020600101819055503373ffffffffffffffffffffffffffffffffffffffff166108fc839081150290604051600060405180830381858888f19350505050158015610323573d6000803e3d6000fd5b505b5050565b60008060003373ffffffffffffffffffffffffffffffffffffffff1673ffffffffffffffffffffffffffffffffffffffff16815260200190815260200160002060010154905090565b808211156103b5576040517f08c379a00000000000000000000000000000000000000000000000000000000081526004016103ac90610af5565b60405180910390fd5b600082116103f8576040517f08c379a00000000000000000000000000000000000000000000000000000000081526004016103ef90610b61565b60405180910390fd5b5050565b60008060003373ffffffffffffffffffffffffffffffffffffffff1673ffffffffffffffffffffffffffffffffffffffff168152602001908152602001600020600101549050600160009054906101000a900473ffffffffffffffffffffffffffffffffffffffff1673ffffffffffffffffffffffffffffffffffffffff1663851de46784836040518363ffffffff1660e01b815260040161049f929190610889565b60006040518083038186803b1580156104b757600080fd5b505afa9250505080156104c8575060015b610541576104d46108bf565b806308c379a00361053057506104e8610952565b806104f35750610532565b7fc35a0ec6603ff0b5966d7ca053a5f0984a70aad58a9a0ecb1349308815a4151a816040516105229190610a61565b60405180910390a15061053c565b505b3d6000803e3d6000fd5b610674565b610595836000803373ffffffffffffffffffffffffffffffffffffffff1673ffffffffffffffffffffffffffffffffffffffff168152602001908152602001600020600101546106c190919063ffffffff16565b6000803373ffffffffffffffffffffffffffffffffffffffff1673ffffffffffffffffffffffffffffffffffffffff1681526020019081526020016000206001018190555061062e836000808573ffffffffffffffffffffffffffffffffffffffff1673ffffffffffffffffffffffffffffffffffffffff168152602001908152602001600020600101546106e890919063ffffffff16565b6000808473ffffffffffffffffffffffffffffffffffffffff1673ffffffffffffffffffffffffffffffffffffffff168152602001908152602001600020600101819055505b505050565b346000803373ffffffffffffffffffffffffffffffffffffffff1673ffffffffffffffffffffffffffffffffffffffff16815260200190815260200160002060010181905550565b6000828211156106d4576106d3610b81565b5b81836106e09190610bdf565b905092915050565b600081836106f69190610c13565b90508281101561070957610708610b81565b5b92915050565b6000604051905090565b600080fd5b6000819050919050565b6107318161071e565b811461073c57600080fd5b50565b60008135905061074e81610728565b92915050565b60006020828403121561076a57610769610719565b5b60006107788482850161073f565b91505092915050565b61078a8161071e565b82525050565b60006020820190506107a56000830184610781565b92915050565b600080604083850312156107c2576107c1610719565b5b60006107d08582860161073f565b92505060206107e18582860161073f565b9150509250929050565b600073ffffffffffffffffffffffffffffffffffffffff82169050919050565b6000610816826107eb565b9050919050565b6108268161080b565b811461083157600080fd5b50565b6000813590506108438161081d565b92915050565b600080604083850312156108605761085f610719565b5b600061086e8582860161073f565b925050602061087f85828601610834565b9150509250929050565b600060408201905061089e6000830185610781565b6108ab6020830184610781565b9392505050565b60008160e01c9050919050565b600060033d11156108de5760046000803e6108db6000516108b2565b90505b90565b6000601f19601f8301169050919050565b7f4e487b7100000000000000000000000000000000000000000000000000000000600052604160045260246000fd5b61092a826108e1565b810181811067ffffffffffffffff82111715610949576109486108f2565b5b80604052505050565b600060443d106109df5761096461070f565b60043d036004823e80513d602482011167ffffffffffffffff8211171561098c5750506109df565b808201805167ffffffffffffffff8111156109aa57505050506109df565b80602083010160043d0385018111156109c75750505050506109df565b6109d682602001850186610921565b82955050505050505b90565b600081519050919050565b600082825260208201905092915050565b60005b83811015610a1c578082015181840152602081019050610a01565b60008484015250505050565b6000610a33826109e2565b610a3d81856109ed565b9350610a4d8185602086016109fe565b610a56816108e1565b840191505092915050565b60006020820190508181036000830152610a7b8184610a28565b905092915050565b7f596f752063616e2774207370656e64206d6f7265207468616e20796f7520686160008201527f76652e0000000000000000000000000000000000000000000000000000000000602082015250565b6000610adf6023836109ed565b9150610aea82610a83565b604082019050919050565b60006020820190508181036000830152610b0e81610ad2565b9050919050565b7f416d6f756e742068617320746f206265206d6f7265207468616e20302e000000600082015250565b6000610b4b601d836109ed565b9150610b5682610b15565b602082019050919050565b60006020820190508181036000830152610b7a81610b3e565b9050919050565b7f4e487b7100000000000000000000000000000000000000000000000000000000600052600160045260246000fd5b7f4e487b7100000000000000000000000000000000000000000000000000000000600052601160045260246000fd5b6000610bea8261071e565b9150610bf58361071e565b9250828203905081811115610c0d57610c0c610bb0565b5b92915050565b6000610c1e8261071e565b9150610c298361071e565b9250828201905080821115610c4157610c40610bb0565b5b9291505056fea2646970667358221220d7a81e515103010564e6307b7ecff2afce43f63ceee734050838918ba16b54e264736f6c63430008120033608060405234801561001057600080fd5b50610296806100206000396000f3fe608060405234801561001057600080fd5b506004361061002b5760003560e01c8063851de46714610030575b600080fd5b61004a60048036038101906100459190610111565b61004c565b005b8082111561008f576040517f08c379a0000000000000000000000000000000000000000000000000000000008152600401610086906101d4565b60405180910390fd5b600082116100d2576040517f08c379a00000000000000000000000000000000000000000000000000000000081526004016100c990610240565b60405180910390fd5b5050565b600080fd5b6000819050919050565b6100ee816100db565b81146100f957600080fd5b50565b60008135905061010b816100e5565b92915050565b60008060408385031215610128576101276100d6565b5b6000610136858286016100fc565b9250506020610147858286016100fc565b9150509250929050565b600082825260208201905092915050565b7f596f752063616e2774207370656e64206d6f7265207468616e20796f7520686160008201527f76652e0000000000000000000000000000000000000000000000000000000000602082015250565b60006101be602383610151565b91506101c982610162565b604082019050919050565b600060208201905081810360008301526101ed816101b1565b9050919050565b7f416d6f756e742068617320746f206265206d6f7265207468616e20302e000000600082015250565b600061022a601d83610151565b9150610235826101f4565b602082019050919050565b600060208201905081810360008301526102598161021d565b905091905056fea26469706673582212200c8117a76e2cefbfe628c673f5709979cd2d7ef516610aebedc6d475bd7a616564736f6c63430008120033",
					"opcodes": "PUSH1 0x80 PUSH1 0x40 MSTORE PUSH1 0x40 MLOAD PUSH2 0x10 SWAP1 PUSH2 0x7F JUMP JUMPDEST PUSH1 0x40 MLOAD DUP1 SWAP2 SUB SWAP1 PUSH1 0x0 CREATE DUP1 ISZERO DUP1 ISZERO PUSH2 0x2C JUMPI RETURNDATASIZE PUSH1 0x0 DUP1 RETURNDATACOPY RETURNDATASIZE PUSH1 0x0 REVERT JUMPDEST POP PUSH1 0x1 PUSH1 0x0 PUSH2 0x100 EXP DUP2 SLOAD DUP2 PUSH20 0xFFFFFFFFFFFFFFFFFFFFFFFFFFFFFFFFFFFFFFFF MUL NOT AND SWAP1 DUP4 PUSH20 0xFFFFFFFFFFFFFFFFFFFFFFFFFFFFFFFFFFFFFFFF AND MUL OR SWAP1 SSTORE POP CALLVALUE DUP1 ISZERO PUSH2 0x79 JUMPI PUSH1 0x0 DUP1 REVERT JUMPDEST POP PUSH2 0x8C JUMP JUMPDEST PUSH2 0x2B6 DUP1 PUSH2 0xD18 DUP4 CODECOPY ADD SWAP1 JUMP JUMPDEST PUSH2 0xC7D DUP1 PUSH2 0x9B PUSH1 0x0 CODECOPY PUSH1 0x0 RETURN INVALID PUSH1 0x80 PUSH1 0x40 MSTORE PUSH1 0x4 CALLDATASIZE LT PUSH2 0x4A JUMPI PUSH1 0x0 CALLDATALOAD PUSH1 0xE0 SHR DUP1 PUSH4 0x2E1A7D4D EQ PUSH2 0x4F JUMPI DUP1 PUSH4 0x81B2D07B EQ PUSH2 0x78 JUMPI DUP1 PUSH4 0x851DE467 EQ PUSH2 0xA3 JUMPI DUP1 PUSH4 0xB7760C8F EQ PUSH2 0xCC JUMPI DUP1 PUSH4 0xD0E30DB0 EQ PUSH2 0xF5 JUMPI JUMPDEST PUSH1 0x0 DUP1 REVERT JUMPDEST CALLVALUE DUP1 ISZERO PUSH2 0x5B JUMPI PUSH1 0x0 DUP1 REVERT JUMPDEST POP PUSH2 0x76 PUSH1 0x4 DUP1 CALLDATASIZE SUB DUP2 ADD SWAP1 PUSH2 0x71 SWAP2 SWAP1 PUSH2 0x754 JUMP JUMPDEST PUSH2 0xFF JUMP JUMPDEST STOP JUMPDEST CALLVALUE DUP1 ISZERO PUSH2 0x84 JUMPI PUSH1 0x0 DUP1 REVERT JUMPDEST POP PUSH2 0x8D PUSH2 0x329 JUMP JUMPDEST PUSH1 0x40 MLOAD PUSH2 0x9A SWAP2 SWAP1 PUSH2 0x790 JUMP JUMPDEST PUSH1 0x40 MLOAD DUP1 SWAP2 SUB SWAP1 RETURN JUMPDEST CALLVALUE DUP1 ISZERO PUSH2 0xAF JUMPI PUSH1 0x0 DUP1 REVERT JUMPDEST POP PUSH2 0xCA PUSH1 0x4 DUP1 CALLDATASIZE SUB DUP2 ADD SWAP1 PUSH2 0xC5 SWAP2 SWAP1 PUSH2 0x7AB JUMP JUMPDEST PUSH2 0x372 JUMP JUMPDEST STOP JUMPDEST CALLVALUE DUP1 ISZERO PUSH2 0xD8 JUMPI PUSH1 0x0 DUP1 REVERT JUMPDEST POP PUSH2 0xF3 PUSH1 0x4 DUP1 CALLDATASIZE SUB DUP2 ADD SWAP1 PUSH2 0xEE SWAP2 SWAP1 PUSH2 0x849 JUMP JUMPDEST PUSH2 0x3FC JUMP JUMPDEST STOP JUMPDEST PUSH2 0xFD PUSH2 0x679 JUMP JUMPDEST STOP JUMPDEST PUSH1 0x0 DUP1 PUSH1 0x0 CALLER PUSH20 0xFFFFFFFFFFFFFFFFFFFFFFFFFFFFFFFFFFFFFFFF AND PUSH20 0xFFFFFFFFFFFFFFFFFFFFFFFFFFFFFFFFFFFFFFFF AND DUP2 MSTORE PUSH1 0x20 ADD SWAP1 DUP2 MSTORE PUSH1 0x20 ADD PUSH1 0x0 KECCAK256 PUSH1 0x1 ADD SLOAD SWAP1 POP PUSH1 0x1 PUSH1 0x0 SWAP1 SLOAD SWAP1 PUSH2 0x100 EXP SWAP1 DIV PUSH20 0xFFFFFFFFFFFFFFFFFFFFFFFFFFFFFFFFFFFFFFFF AND PUSH20 0xFFFFFFFFFFFFFFFFFFFFFFFFFFFFFFFFFFFFFFFF AND PUSH4 0x851DE467 DUP4 DUP4 PUSH1 0x40 MLOAD DUP4 PUSH4 0xFFFFFFFF AND PUSH1 0xE0 SHL DUP2 MSTORE PUSH1 0x4 ADD PUSH2 0x1A2 SWAP3 SWAP2 SWAP1 PUSH2 0x889 JUMP JUMPDEST PUSH1 0x0 PUSH1 0x40 MLOAD DUP1 DUP4 SUB DUP2 DUP7 DUP1 EXTCODESIZE ISZERO DUP1 ISZERO PUSH2 0x1BA JUMPI PUSH1 0x0 DUP1 REVERT JUMPDEST POP GAS STATICCALL SWAP3 POP POP POP DUP1 ISZERO PUSH2 0x1CB JUMPI POP PUSH1 0x1 JUMPDEST PUSH2 0x244 JUMPI PUSH2 0x1D7 PUSH2 0x8BF JUMP JUMPDEST DUP1 PUSH4 0x8C379A0 SUB PUSH2 0x233 JUMPI POP PUSH2 0x1EB PUSH2 0x952 JUMP JUMPDEST DUP1 PUSH2 0x1F6 JUMPI POP PUSH2 0x235 JUMP JUMPDEST PUSH32 0xC35A0EC6603FF0B5966D7CA053A5F0984A70AAD58A9A0ECB1349308815A4151A DUP2 PUSH1 0x40 MLOAD PUSH2 0x225 SWAP2 SWAP1 PUSH2 0xA61 JUMP JUMPDEST PUSH1 0x40 MLOAD DUP1 SWAP2 SUB SWAP1 LOG1 POP PUSH2 0x23F JUMP JUMPDEST POP JUMPDEST RETURNDATASIZE PUSH1 0x0 DUP1 RETURNDATACOPY RETURNDATASIZE PUSH1 0x0 REVERT JUMPDEST PUSH2 0x325 JUMP JUMPDEST PUSH2 0x298 DUP3 PUSH1 0x0 DUP1 CALLER PUSH20 0xFFFFFFFFFFFFFFFFFFFFFFFFFFFFFFFFFFFFFFFF AND PUSH20 0xFFFFFFFFFFFFFFFFFFFFFFFFFFFFFFFFFFFFFFFF AND DUP2 MSTORE PUSH1 0x20 ADD SWAP1 DUP2 MSTORE PUSH1 0x20 ADD PUSH1 0x0 KECCAK256 PUSH1 0x1 ADD SLOAD PUSH2 0x6C1 SWAP1 SWAP2 SWAP1 PUSH4 0xFFFFFFFF AND JUMP JUMPDEST PUSH1 0x0 DUP1 CALLER PUSH20 0xFFFFFFFFFFFFFFFFFFFFFFFFFFFFFFFFFFFFFFFF AND PUSH20 0xFFFFFFFFFFFFFFFFFFFFFFFFFFFFFFFFFFFFFFFF AND DUP2 MSTORE PUSH1 0x20 ADD SWAP1 DUP2 MSTORE PUSH1 0x20 ADD PUSH1 0x0 KECCAK256 PUSH1 0x1 ADD DUP2 SWAP1 SSTORE POP CALLER PUSH20 0xFFFFFFFFFFFFFFFFFFFFFFFFFFFFFFFFFFFFFFFF AND PUSH2 0x8FC DUP4 SWAP1 DUP2 ISZERO MUL SWAP1 PUSH1 0x40 MLOAD PUSH1 0x0 PUSH1 0x40 MLOAD DUP1 DUP4 SUB DUP2 DUP6 DUP9 DUP9 CALL SWAP4 POP POP POP POP ISZERO DUP1 ISZERO PUSH2 0x323 JUMPI RETURNDATASIZE PUSH1 0x0 DUP1 RETURNDATACOPY RETURNDATASIZE PUSH1 0x0 REVERT JUMPDEST POP JUMPDEST POP POP JUMP JUMPDEST PUSH1 0x0 DUP1 PUSH1 0x0 CALLER PUSH20 0xFFFFFFFFFFFFFFFFFFFFFFFFFFFFFFFFFFFFFFFF AND PUSH20 0xFFFFFFFFFFFFFFFFFFFFFFFFFFFFFFFFFFFFFFFF AND DUP2 MSTORE PUSH1 0x20 ADD SWAP1 DUP2 MSTORE PUSH1 0x20 ADD PUSH1 0x0 KECCAK256 PUSH1 0x1 ADD SLOAD SWAP1 POP SWAP1 JUMP JUMPDEST DUP1 DUP3 GT ISZERO PUSH2 0x3B5 JUMPI PUSH1 0x40 MLOAD PUSH32 0x8C379A000000000000000000000000000000000000000000000000000000000 DUP2 MSTORE PUSH1 0x4 ADD PUSH2 0x3AC SWAP1 PUSH2 0xAF5 JUMP JUMPDEST PUSH1 0x40 MLOAD DUP1 SWAP2 SUB SWAP1 REVERT JUMPDEST PUSH1 0x0 DUP3 GT PUSH2 0x3F8 JUMPI PUSH1 0x40 MLOAD PUSH32 0x8C379A000000000000000000000000000000000000000000000000000000000 DUP2 MSTORE PUSH1 0x4 ADD PUSH2 0x3EF SWAP1 PUSH2 0xB61 JUMP JUMPDEST PUSH1 0x40 MLOAD DUP1 SWAP2 SUB SWAP1 REVERT JUMPDEST POP POP JUMP JUMPDEST PUSH1 0x0 DUP1 PUSH1 0x0 CALLER PUSH20 0xFFFFFFFFFFFFFFFFFFFFFFFFFFFFFFFFFFFFFFFF AND PUSH20 0xFFFFFFFFFFFFFFFFFFFFFFFFFFFFFFFFFFFFFFFF AND DUP2 MSTORE PUSH1 0x20 ADD SWAP1 DUP2 MSTORE PUSH1 0x20 ADD PUSH1 0x0 KECCAK256 PUSH1 0x1 ADD SLOAD SWAP1 POP PUSH1 0x1 PUSH1 0x0 SWAP1 SLOAD SWAP1 PUSH2 0x100 EXP SWAP1 DIV PUSH20 0xFFFFFFFFFFFFFFFFFFFFFFFFFFFFFFFFFFFFFFFF AND PUSH20 0xFFFFFFFFFFFFFFFFFFFFFFFFFFFFFFFFFFFFFFFF AND PUSH4 0x851DE467 DUP5 DUP4 PUSH1 0x40 MLOAD DUP4 PUSH4 0xFFFFFFFF AND PUSH1 0xE0 SHL DUP2 MSTORE PUSH1 0x4 ADD PUSH2 0x49F SWAP3 SWAP2 SWAP1 PUSH2 0x889 JUMP JUMPDEST PUSH1 0x0 PUSH1 0x40 MLOAD DUP1 DUP4 SUB DUP2 DUP7 DUP1 EXTCODESIZE ISZERO DUP1 ISZERO PUSH2 0x4B7 JUMPI PUSH1 0x0 DUP1 REVERT JUMPDEST POP GAS STATICCALL SWAP3 POP POP POP DUP1 ISZERO PUSH2 0x4C8 JUMPI POP PUSH1 0x1 JUMPDEST PUSH2 0x541 JUMPI PUSH2 0x4D4 PUSH2 0x8BF JUMP JUMPDEST DUP1 PUSH4 0x8C379A0 SUB PUSH2 0x530 JUMPI POP PUSH2 0x4E8 PUSH2 0x952 JUMP JUMPDEST DUP1 PUSH2 0x4F3 JUMPI POP PUSH2 0x532 JUMP JUMPDEST PUSH32 0xC35A0EC6603FF0B5966D7CA053A5F0984A70AAD58A9A0ECB1349308815A4151A DUP2 PUSH1 0x40 MLOAD PUSH2 0x522 SWAP2 SWAP1 PUSH2 0xA61 JUMP JUMPDEST PUSH1 0x40 MLOAD DUP1 SWAP2 SUB SWAP1 LOG1 POP PUSH2 0x53C JUMP JUMPDEST POP JUMPDEST RETURNDATASIZE PUSH1 0x0 DUP1 RETURNDATACOPY RETURNDATASIZE PUSH1 0x0 REVERT JUMPDEST PUSH2 0x674 JUMP JUMPDEST PUSH2 0x595 DUP4 PUSH1 0x0 DUP1 CALLER PUSH20 0xFFFFFFFFFFFFFFFFFFFFFFFFFFFFFFFFFFFFFFFF AND PUSH20 0xFFFFFFFFFFFFFFFFFFFFFFFFFFFFFFFFFFFFFFFF AND DUP2 MSTORE PUSH1 0x20 ADD SWAP1 DUP2 MSTORE PUSH1 0x20 ADD PUSH1 0x0 KECCAK256 PUSH1 0x1 ADD SLOAD PUSH2 0x6C1 SWAP1 SWAP2 SWAP1 PUSH4 0xFFFFFFFF AND JUMP JUMPDEST PUSH1 0x0 DUP1 CALLER PUSH20 0xFFFFFFFFFFFFFFFFFFFFFFFFFFFFFFFFFFFFFFFF AND PUSH20 0xFFFFFFFFFFFFFFFFFFFFFFFFFFFFFFFFFFFFFFFF AND DUP2 MSTORE PUSH1 0x20 ADD SWAP1 DUP2 MSTORE PUSH1 0x20 ADD PUSH1 0x0 KECCAK256 PUSH1 0x1 ADD DUP2 SWAP1 SSTORE POP PUSH2 0x62E DUP4 PUSH1 0x0 DUP1 DUP6 PUSH20 0xFFFFFFFFFFFFFFFFFFFFFFFFFFFFFFFFFFFFFFFF AND PUSH20 0xFFFFFFFFFFFFFFFFFFFFFFFFFFFFFFFFFFFFFFFF AND DUP2 MSTORE PUSH1 0x20 ADD SWAP1 DUP2 MSTORE PUSH1 0x20 ADD PUSH1 0x0 KECCAK256 PUSH1 0x1 ADD SLOAD PUSH2 0x6E8 SWAP1 SWAP2 SWAP1 PUSH4 0xFFFFFFFF AND JUMP JUMPDEST PUSH1 0x0 DUP1 DUP5 PUSH20 0xFFFFFFFFFFFFFFFFFFFFFFFFFFFFFFFFFFFFFFFF AND PUSH20 0xFFFFFFFFFFFFFFFFFFFFFFFFFFFFFFFFFFFFFFFF AND DUP2 MSTORE PUSH1 0x20 ADD SWAP1 DUP2 MSTORE PUSH1 0x20 ADD PUSH1 0x0 KECCAK256 PUSH1 0x1 ADD DUP2 SWAP1 SSTORE POP JUMPDEST POP POP POP JUMP JUMPDEST CALLVALUE PUSH1 0x0 DUP1 CALLER PUSH20 0xFFFFFFFFFFFFFFFFFFFFFFFFFFFFFFFFFFFFFFFF AND PUSH20 0xFFFFFFFFFFFFFFFFFFFFFFFFFFFFFFFFFFFFFFFF AND DUP2 MSTORE PUSH1 0x20 ADD SWAP1 DUP2 MSTORE PUSH1 0x20 ADD PUSH1 0x0 KECCAK256 PUSH1 0x1 ADD DUP2 SWAP1 SSTORE POP JUMP JUMPDEST PUSH1 0x0 DUP3 DUP3 GT ISZERO PUSH2 0x6D4 JUMPI PUSH2 0x6D3 PUSH2 0xB81 JUMP JUMPDEST JUMPDEST DUP2 DUP4 PUSH2 0x6E0 SWAP2 SWAP1 PUSH2 0xBDF JUMP JUMPDEST SWAP1 POP SWAP3 SWAP2 POP POP JUMP JUMPDEST PUSH1 0x0 DUP2 DUP4 PUSH2 0x6F6 SWAP2 SWAP1 PUSH2 0xC13 JUMP JUMPDEST SWAP1 POP DUP3 DUP2 LT ISZERO PUSH2 0x709 JUMPI PUSH2 0x708 PUSH2 0xB81 JUMP JUMPDEST JUMPDEST SWAP3 SWAP2 POP POP JUMP JUMPDEST PUSH1 0x0 PUSH1 0x40 MLOAD SWAP1 POP SWAP1 JUMP JUMPDEST PUSH1 0x0 DUP1 REVERT JUMPDEST PUSH1 0x0 DUP2 SWAP1 POP SWAP2 SWAP1 POP JUMP JUMPDEST PUSH2 0x731 DUP2 PUSH2 0x71E JUMP JUMPDEST DUP2 EQ PUSH2 0x73C JUMPI PUSH1 0x0 DUP1 REVERT JUMPDEST POP JUMP JUMPDEST PUSH1 0x0 DUP2 CALLDATALOAD SWAP1 POP PUSH2 0x74E DUP2 PUSH2 0x728 JUMP JUMPDEST SWAP3 SWAP2 POP POP JUMP JUMPDEST PUSH1 0x0 PUSH1 0x20 DUP3 DUP5 SUB SLT ISZERO PUSH2 0x76A JUMPI PUSH2 0x769 PUSH2 0x719 JUMP JUMPDEST JUMPDEST PUSH1 0x0 PUSH2 0x778 DUP5 DUP3 DUP6 ADD PUSH2 0x73F JUMP JUMPDEST SWAP2 POP POP SWAP3 SWAP2 POP POP JUMP JUMPDEST PUSH2 0x78A DUP2 PUSH2 0x71E JUMP JUMPDEST DUP3 MSTORE POP POP JUMP JUMPDEST PUSH1 0x0 PUSH1 0x20 DUP3 ADD SWAP1 POP PUSH2 0x7A5 PUSH1 0x0 DUP4 ADD DUP5 PUSH2 0x781 JUMP JUMPDEST SWAP3 SWAP2 POP POP JUMP JUMPDEST PUSH1 0x0 DUP1 PUSH1 0x40 DUP4 DUP6 SUB SLT ISZERO PUSH2 0x7C2 JUMPI PUSH2 0x7C1 PUSH2 0x719 JUMP JUMPDEST JUMPDEST PUSH1 0x0 PUSH2 0x7D0 DUP6 DUP3 DUP7 ADD PUSH2 0x73F JUMP JUMPDEST SWAP3 POP POP PUSH1 0x20 PUSH2 0x7E1 DUP6 DUP3 DUP7 ADD PUSH2 0x73F JUMP JUMPDEST SWAP2 POP POP SWAP3 POP SWAP3 SWAP1 POP JUMP JUMPDEST PUSH1 0x0 PUSH20 0xFFFFFFFFFFFFFFFFFFFFFFFFFFFFFFFFFFFFFFFF DUP3 AND SWAP1 POP SWAP2 SWAP1 POP JUMP JUMPDEST PUSH1 0x0 PUSH2 0x816 DUP3 PUSH2 0x7EB JUMP JUMPDEST SWAP1 POP SWAP2 SWAP1 POP JUMP JUMPDEST PUSH2 0x826 DUP2 PUSH2 0x80B JUMP JUMPDEST DUP2 EQ PUSH2 0x831 JUMPI PUSH1 0x0 DUP1 REVERT JUMPDEST POP JUMP JUMPDEST PUSH1 0x0 DUP2 CALLDATALOAD SWAP1 POP PUSH2 0x843 DUP2 PUSH2 0x81D JUMP JUMPDEST SWAP3 SWAP2 POP POP JUMP JUMPDEST PUSH1 0x0 DUP1 PUSH1 0x40 DUP4 DUP6 SUB SLT ISZERO PUSH2 0x860 JUMPI PUSH2 0x85F PUSH2 0x719 JUMP JUMPDEST JUMPDEST PUSH1 0x0 PUSH2 0x86E DUP6 DUP3 DUP7 ADD PUSH2 0x73F JUMP JUMPDEST SWAP3 POP POP PUSH1 0x20 PUSH2 0x87F DUP6 DUP3 DUP7 ADD PUSH2 0x834 JUMP JUMPDEST SWAP2 POP POP SWAP3 POP SWAP3 SWAP1 POP JUMP JUMPDEST PUSH1 0x0 PUSH1 0x40 DUP3 ADD SWAP1 POP PUSH2 0x89E PUSH1 0x0 DUP4 ADD DUP6 PUSH2 0x781 JUMP JUMPDEST PUSH2 0x8AB PUSH1 0x20 DUP4 ADD DUP5 PUSH2 0x781 JUMP JUMPDEST SWAP4 SWAP3 POP POP POP JUMP JUMPDEST PUSH1 0x0 DUP2 PUSH1 0xE0 SHR SWAP1 POP SWAP2 SWAP1 POP JUMP JUMPDEST PUSH1 0x0 PUSH1 0x3 RETURNDATASIZE GT ISZERO PUSH2 0x8DE JUMPI PUSH1 0x4 PUSH1 0x0 DUP1 RETURNDATACOPY PUSH2 0x8DB PUSH1 0x0 MLOAD PUSH2 0x8B2 JUMP JUMPDEST SWAP1 POP JUMPDEST SWAP1 JUMP JUMPDEST PUSH1 0x0 PUSH1 0x1F NOT PUSH1 0x1F DUP4 ADD AND SWAP1 POP SWAP2 SWAP1 POP JUMP JUMPDEST PUSH32 0x4E487B7100000000000000000000000000000000000000000000000000000000 PUSH1 0x0 MSTORE PUSH1 0x41 PUSH1 0x4 MSTORE PUSH1 0x24 PUSH1 0x0 REVERT JUMPDEST PUSH2 0x92A DUP3 PUSH2 0x8E1 JUMP JUMPDEST DUP2 ADD DUP2 DUP2 LT PUSH8 0xFFFFFFFFFFFFFFFF DUP3 GT OR ISZERO PUSH2 0x949 JUMPI PUSH2 0x948 PUSH2 0x8F2 JUMP JUMPDEST JUMPDEST DUP1 PUSH1 0x40 MSTORE POP POP POP JUMP JUMPDEST PUSH1 0x0 PUSH1 0x44 RETURNDATASIZE LT PUSH2 0x9DF JUMPI PUSH2 0x964 PUSH2 0x70F JUMP JUMPDEST PUSH1 0x4 RETURNDATASIZE SUB PUSH1 0x4 DUP3 RETURNDATACOPY DUP1 MLOAD RETURNDATASIZE PUSH1 0x24 DUP3 ADD GT PUSH8 0xFFFFFFFFFFFFFFFF DUP3 GT OR ISZERO PUSH2 0x98C JUMPI POP POP PUSH2 0x9DF JUMP JUMPDEST DUP1 DUP3 ADD DUP1 MLOAD PUSH8 0xFFFFFFFFFFFFFFFF DUP2 GT ISZERO PUSH2 0x9AA JUMPI POP POP POP POP PUSH2 0x9DF JUMP JUMPDEST DUP1 PUSH1 0x20 DUP4 ADD ADD PUSH1 0x4 RETURNDATASIZE SUB DUP6 ADD DUP2 GT ISZERO PUSH2 0x9C7 JUMPI POP POP POP POP POP PUSH2 0x9DF JUMP JUMPDEST PUSH2 0x9D6 DUP3 PUSH1 0x20 ADD DUP6 ADD DUP7 PUSH2 0x921 JUMP JUMPDEST DUP3 SWAP6 POP POP POP POP POP POP JUMPDEST SWAP1 JUMP JUMPDEST PUSH1 0x0 DUP2 MLOAD SWAP1 POP SWAP2 SWAP1 POP JUMP JUMPDEST PUSH1 0x0 DUP3 DUP3 MSTORE PUSH1 0x20 DUP3 ADD SWAP1 POP SWAP3 SWAP2 POP POP JUMP JUMPDEST PUSH1 0x0 JUMPDEST DUP4 DUP2 LT ISZERO PUSH2 0xA1C JUMPI DUP1 DUP3 ADD MLOAD DUP2 DUP5 ADD MSTORE PUSH1 0x20 DUP2 ADD SWAP1 POP PUSH2 0xA01 JUMP JUMPDEST PUSH1 0x0 DUP5 DUP5 ADD MSTORE POP POP POP POP JUMP JUMPDEST PUSH1 0x0 PUSH2 0xA33 DUP3 PUSH2 0x9E2 JUMP JUMPDEST PUSH2 0xA3D DUP2 DUP6 PUSH2 0x9ED JUMP JUMPDEST SWAP4 POP PUSH2 0xA4D DUP2 DUP6 PUSH1 0x20 DUP7 ADD PUSH2 0x9FE JUMP JUMPDEST PUSH2 0xA56 DUP2 PUSH2 0x8E1 JUMP JUMPDEST DUP5 ADD SWAP2 POP POP SWAP3 SWAP2 POP POP JUMP JUMPDEST PUSH1 0x0 PUSH1 0x20 DUP3 ADD SWAP1 POP DUP2 DUP2 SUB PUSH1 0x0 DUP4 ADD MSTORE PUSH2 0xA7B DUP2 DUP5 PUSH2 0xA28 JUMP JUMPDEST SWAP1 POP SWAP3 SWAP2 POP POP JUMP JUMPDEST PUSH32 0x596F752063616E2774207370656E64206D6F7265207468616E20796F75206861 PUSH1 0x0 DUP3 ADD MSTORE PUSH32 0x76652E0000000000000000000000000000000000000000000000000000000000 PUSH1 0x20 DUP3 ADD MSTORE POP JUMP JUMPDEST PUSH1 0x0 PUSH2 0xADF PUSH1 0x23 DUP4 PUSH2 0x9ED JUMP JUMPDEST SWAP2 POP PUSH2 0xAEA DUP3 PUSH2 0xA83 JUMP JUMPDEST PUSH1 0x40 DUP3 ADD SWAP1 POP SWAP2 SWAP1 POP JUMP JUMPDEST PUSH1 0x0 PUSH1 0x20 DUP3 ADD SWAP1 POP DUP2 DUP2 SUB PUSH1 0x0 DUP4 ADD MSTORE PUSH2 0xB0E DUP2 PUSH2 0xAD2 JUMP JUMPDEST SWAP1 POP SWAP2 SWAP1 POP JUMP JUMPDEST PUSH32 0x416D6F756E742068617320746F206265206D6F7265207468616E20302E000000 PUSH1 0x0 DUP3 ADD MSTORE POP JUMP JUMPDEST PUSH1 0x0 PUSH2 0xB4B PUSH1 0x1D DUP4 PUSH2 0x9ED JUMP JUMPDEST SWAP2 POP PUSH2 0xB56 DUP3 PUSH2 0xB15 JUMP JUMPDEST PUSH1 0x20 DUP3 ADD SWAP1 POP SWAP2 SWAP1 POP JUMP JUMPDEST PUSH1 0x0 PUSH1 0x20 DUP3 ADD SWAP1 POP DUP2 DUP2 SUB PUSH1 0x0 DUP4 ADD MSTORE PUSH2 0xB7A DUP2 PUSH2 0xB3E JUMP JUMPDEST SWAP1 POP SWAP2 SWAP1 POP JUMP JUMPDEST PUSH32 0x4E487B7100000000000000000000000000000000000000000000000000000000 PUSH1 0x0 MSTORE PUSH1 0x1 PUSH1 0x4 MSTORE PUSH1 0x24 PUSH1 0x0 REVERT JUMPDEST PUSH32 0x4E487B7100000000000000000000000000000000000000000000000000000000 PUSH1 0x0 MSTORE PUSH1 0x11 PUSH1 0x4 MSTORE PUSH1 0x24 PUSH1 0x0 REVERT JUMPDEST PUSH1 0x0 PUSH2 0xBEA DUP3 PUSH2 0x71E JUMP JUMPDEST SWAP2 POP PUSH2 0xBF5 DUP4 PUSH2 0x71E JUMP JUMPDEST SWAP3 POP DUP3 DUP3 SUB SWAP1 POP DUP2 DUP2 GT ISZERO PUSH2 0xC0D JUMPI PUSH2 0xC0C PUSH2 0xBB0 JUMP JUMPDEST JUMPDEST SWAP3 SWAP2 POP POP JUMP JUMPDEST PUSH1 0x0 PUSH2 0xC1E DUP3 PUSH2 0x71E JUMP JUMPDEST SWAP2 POP PUSH2 0xC29 DUP4 PUSH2 0x71E JUMP JUMPDEST SWAP3 POP DUP3 DUP3 ADD SWAP1 POP DUP1 DUP3 GT ISZERO PUSH2 0xC41 JUMPI PUSH2 0xC40 PUSH2 0xBB0 JUMP JUMPDEST JUMPDEST SWAP3 SWAP2 POP POP JUMP INVALID LOG2 PUSH5 0x6970667358 0x22 SLT KECCAK256 0xD7 0xA8 0x1E MLOAD MLOAD SUB ADD SDIV PUSH5 0xE6307B7ECF CALLCODE 0xAF 0xCE NUMBER 0xF6 EXTCODECOPY 0xEE 0xE7 CALLVALUE SDIV ADDMOD CODESIZE SWAP2 DUP12 LOG1 PUSH12 0x54E264736F6C634300081200 CALLER PUSH1 0x80 PUSH1 0x40 MSTORE CALLVALUE DUP1 ISZERO PUSH2 0x10 JUMPI PUSH1 0x0 DUP1 REVERT JUMPDEST POP PUSH2 0x296 DUP1 PUSH2 0x20 PUSH1 0x0 CODECOPY PUSH1 0x0 RETURN INVALID PUSH1 0x80 PUSH1 0x40 MSTORE CALLVALUE DUP1 ISZERO PUSH2 0x10 JUMPI PUSH1 0x0 DUP1 REVERT JUMPDEST POP PUSH1 0x4 CALLDATASIZE LT PUSH2 0x2B JUMPI PUSH1 0x0 CALLDATALOAD PUSH1 0xE0 SHR DUP1 PUSH4 0x851DE467 EQ PUSH2 0x30 JUMPI JUMPDEST PUSH1 0x0 DUP1 REVERT JUMPDEST PUSH2 0x4A PUSH1 0x4 DUP1 CALLDATASIZE SUB DUP2 ADD SWAP1 PUSH2 0x45 SWAP2 SWAP1 PUSH2 0x111 JUMP JUMPDEST PUSH2 0x4C JUMP JUMPDEST STOP JUMPDEST DUP1 DUP3 GT ISZERO PUSH2 0x8F JUMPI PUSH1 0x40 MLOAD PUSH32 0x8C379A000000000000000000000000000000000000000000000000000000000 DUP2 MSTORE PUSH1 0x4 ADD PUSH2 0x86 SWAP1 PUSH2 0x1D4 JUMP JUMPDEST PUSH1 0x40 MLOAD DUP1 SWAP2 SUB SWAP1 REVERT JUMPDEST PUSH1 0x0 DUP3 GT PUSH2 0xD2 JUMPI PUSH1 0x40 MLOAD PUSH32 0x8C379A000000000000000000000000000000000000000000000000000000000 DUP2 MSTORE PUSH1 0x4 ADD PUSH2 0xC9 SWAP1 PUSH2 0x240 JUMP JUMPDEST PUSH1 0x40 MLOAD DUP1 SWAP2 SUB SWAP1 REVERT JUMPDEST POP POP JUMP JUMPDEST PUSH1 0x0 DUP1 REVERT JUMPDEST PUSH1 0x0 DUP2 SWAP1 POP SWAP2 SWAP1 POP JUMP JUMPDEST PUSH2 0xEE DUP2 PUSH2 0xDB JUMP JUMPDEST DUP2 EQ PUSH2 0xF9 JUMPI PUSH1 0x0 DUP1 REVERT JUMPDEST POP JUMP JUMPDEST PUSH1 0x0 DUP2 CALLDATALOAD SWAP1 POP PUSH2 0x10B DUP2 PUSH2 0xE5 JUMP JUMPDEST SWAP3 SWAP2 POP POP JUMP JUMPDEST PUSH1 0x0 DUP1 PUSH1 0x40 DUP4 DUP6 SUB SLT ISZERO PUSH2 0x128 JUMPI PUSH2 0x127 PUSH2 0xD6 JUMP JUMPDEST JUMPDEST PUSH1 0x0 PUSH2 0x136 DUP6 DUP3 DUP7 ADD PUSH2 0xFC JUMP JUMPDEST SWAP3 POP POP PUSH1 0x20 PUSH2 0x147 DUP6 DUP3 DUP7 ADD PUSH2 0xFC JUMP JUMPDEST SWAP2 POP POP SWAP3 POP SWAP3 SWAP1 POP JUMP JUMPDEST PUSH1 0x0 DUP3 DUP3 MSTORE PUSH1 0x20 DUP3 ADD SWAP1 POP SWAP3 SWAP2 POP POP JUMP JUMPDEST PUSH32 0x596F752063616E2774207370656E64206D6F7265207468616E20796F75206861 PUSH1 0x0 DUP3 ADD MSTORE PUSH32 0x76652E0000000000000000000000000000000000000000000000000000000000 PUSH1 0x20 DUP3 ADD MSTORE POP JUMP JUMPDEST PUSH1 0x0 PUSH2 0x1BE PUSH1 0x23 DUP4 PUSH2 0x151 JUMP JUMPDEST SWAP2 POP PUSH2 0x1C9 DUP3 PUSH2 0x162 JUMP JUMPDEST PUSH1 0x40 DUP3 ADD SWAP1 POP SWAP2 SWAP1 POP JUMP JUMPDEST PUSH1 0x0 PUSH1 0x20 DUP3 ADD SWAP1 POP DUP2 DUP2 SUB PUSH1 0x0 DUP4 ADD MSTORE PUSH2 0x1ED DUP2 PUSH2 0x1B1 JUMP JUMPDEST SWAP1 POP SWAP2 SWAP1 POP JUMP JUMPDEST PUSH32 0x416D6F756E742068617320746F206265206D6F7265207468616E20302E000000 PUSH1 0x0 DUP3 ADD MSTORE POP JUMP JUMPDEST PUSH1 0x0 PUSH2 0x22A PUSH1 0x1D DUP4 PUSH2 0x151 JUMP JUMPDEST SWAP2 POP PUSH2 0x235 DUP3 PUSH2 0x1F4 JUMP JUMPDEST PUSH1 0x20 DUP3 ADD SWAP1 POP SWAP2 SWAP1 POP JUMP JUMPDEST PUSH1 0x0 PUSH1 0x20 DUP3 ADD SWAP1 POP DUP2 DUP2 SUB PUSH1 0x0 DUP4 ADD MSTORE PUSH2 0x259 DUP2 PUSH2 0x21D JUMP JUMPDEST SWAP1 POP SWAP2 SWAP1 POP JUMP INVALID LOG2 PUSH5 0x6970667358 0x22 SLT KECCAK256 0xC DUP2 OR 0xA7 PUSH15 0x2CEFBFE628C673F5709979CD2D7EF5 AND PUSH2 0xAEB 0xED 0xC6 0xD4 PUSH22 0xBD7A616564736F6C6343000812003300000000000000 "
				},
				"gasEstimates": {
					"creation": {
						"codeDepositCost": "639400",
						"executionCost": "infinite",
						"totalCost": "infinite"
					},
					"external": {
						"amountController(uint256,uint256)": "infinite",
						"deposit()": "22394",
						"showBalance()": "2532",
						"transfer(uint256,address)": "infinite",
						"withdraw(uint256)": "infinite"
					}
				},
				"methodIdentifiers": {
					"amountController(uint256,uint256)": "851de467",
					"deposit()": "d0e30db0",
					"showBalance()": "81b2d07b",
					"transfer(uint256,address)": "b7760c8f",
					"withdraw(uint256)": "2e1a7d4d"
				}
			},
			"storageLayout": {
				"storage": [
					{
						"astId": 137,
						"contract": "contracts/Smart_Wallet_Final/Smart_Wallet.sol:SmartWallet",
						"label": "wallets",
						"offset": 0,
						"slot": "0",
						"type": "t_mapping(t_address,t_struct(Wallet)153_storage)"
					},
					{
						"astId": 144,
						"contract": "contracts/Smart_Wallet_Final/Smart_Wallet.sol:SmartWallet",
						"label": "controller",
						"offset": 0,
						"slot": "1",
						"type": "t_contract(BalanceAndAmount)24"
					}
				],
				"types": {
					"t_address": {
						"encoding": "inplace",
						"label": "address",
						"numberOfBytes": "20"
					},
					"t_contract(BalanceAndAmount)24": {
						"encoding": "inplace",
						"label": "contract BalanceAndAmount",
						"numberOfBytes": "20"
					},
					"t_mapping(t_address,t_struct(Wallet)153_storage)": {
						"encoding": "mapping",
						"key": "t_address",
						"label": "mapping(address => struct SmartWallet.Wallet)",
						"numberOfBytes": "32",
						"value": "t_struct(Wallet)153_storage"
					},
					"t_struct(Wallet)153_storage": {
						"encoding": "inplace",
						"label": "struct SmartWallet.Wallet",
						"members": [
							{
								"astId": 150,
								"contract": "contracts/Smart_Wallet_Final/Smart_Wallet.sol:SmartWallet",
								"label": "owner",
								"offset": 0,
								"slot": "0",
								"type": "t_address"
							},
							{
								"astId": 152,
								"contract": "contracts/Smart_Wallet_Final/Smart_Wallet.sol:SmartWallet",
								"label": "balance",
								"offset": 0,
								"slot": "1",
								"type": "t_uint256"
							}
						],
						"numberOfBytes": "64"
					},
					"t_uint256": {
						"encoding": "inplace",
						"label": "uint256",
						"numberOfBytes": "32"
					}
				}
			},
			"userdoc": {
				"kind": "user",
				"methods": {},
				"version": 1
			}
		}
	}
}