{
	"contracts/Smart_Wallet_Final.sol/Enough_Balance.sol": {
		"EnoughBalance": {
			"abi": [
				{
					"inputs": [
						{
							"internalType": "uint256",
							"name": "amount",
							"type": "uint256"
						},
						{
							"internalType": "uint256",
							"name": "senderBalance",
							"type": "uint256"
						}
					],
					"name": "enoughBalance",
					"outputs": [],
					"stateMutability": "pure",
					"type": "function"
				}
			],
			"devdoc": {
				"kind": "dev",
				"methods": {},
				"version": 1
			},
			"evm": {
				"assembly": "    /* \"contracts/Smart_Wallet_Final.sol/Enough_Balance.sol\":60:560  contract EnoughBalance {... */\n  mstore(0x40, 0x80)\n  callvalue\n  dup1\n  iszero\n  tag_1\n  jumpi\n  0x00\n  dup1\n  revert\ntag_1:\n  pop\n  dataSize(sub_0)\n  dup1\n  dataOffset(sub_0)\n  0x00\n  codecopy\n  0x00\n  return\nstop\n\nsub_0: assembly {\n        /* \"contracts/Smart_Wallet_Final.sol/Enough_Balance.sol\":60:560  contract EnoughBalance {... */\n      mstore(0x40, 0x80)\n      callvalue\n      dup1\n      iszero\n      tag_1\n      jumpi\n      0x00\n      dup1\n      revert\n    tag_1:\n      pop\n      jumpi(tag_2, lt(calldatasize, 0x04))\n      shr(0xe0, calldataload(0x00))\n      dup1\n      0xbd526347\n      eq\n      tag_3\n      jumpi\n    tag_2:\n      0x00\n      dup1\n      revert\n        /* \"contracts/Smart_Wallet_Final.sol/Enough_Balance.sol\":399:557  function enoughBalance(uint amount, uint senderBalance) public pure {... */\n    tag_3:\n      tag_4\n      0x04\n      dup1\n      calldatasize\n      sub\n      dup2\n      add\n      swap1\n      tag_5\n      swap2\n      swap1\n      tag_6\n      jump\t// in\n    tag_5:\n      tag_7\n      jump\t// in\n    tag_4:\n      stop\n    tag_7:\n        /* \"contracts/Smart_Wallet_Final.sol/Enough_Balance.sol\":496:509  senderBalance */\n      dup1\n        /* \"contracts/Smart_Wallet_Final.sol/Enough_Balance.sol\":486:492  amount */\n      dup3\n        /* \"contracts/Smart_Wallet_Final.sol/Enough_Balance.sol\":486:509  amount <= senderBalance */\n      gt\n      iszero\n        /* \"contracts/Smart_Wallet_Final.sol/Enough_Balance.sol\":478:549  require(amount <= senderBalance, \"You can't spend more than you have.\") */\n      tag_9\n      jumpi\n      mload(0x40)\n      0x08c379a000000000000000000000000000000000000000000000000000000000\n      dup2\n      mstore\n      0x04\n      add\n      tag_10\n      swap1\n      tag_11\n      jump\t// in\n    tag_10:\n      mload(0x40)\n      dup1\n      swap2\n      sub\n      swap1\n      revert\n    tag_9:\n        /* \"contracts/Smart_Wallet_Final.sol/Enough_Balance.sol\":399:557  function enoughBalance(uint amount, uint senderBalance) public pure {... */\n      pop\n      pop\n      jump\t// out\n        /* \"#utility.yul\":88:205   */\n    tag_13:\n        /* \"#utility.yul\":197:198   */\n      0x00\n        /* \"#utility.yul\":194:195   */\n      dup1\n        /* \"#utility.yul\":187:199   */\n      revert\n        /* \"#utility.yul\":334:411   */\n    tag_15:\n        /* \"#utility.yul\":371:378   */\n      0x00\n        /* \"#utility.yul\":400:405   */\n      dup2\n        /* \"#utility.yul\":389:405   */\n      swap1\n      pop\n        /* \"#utility.yul\":334:411   */\n      swap2\n      swap1\n      pop\n      jump\t// out\n        /* \"#utility.yul\":417:539   */\n    tag_16:\n        /* \"#utility.yul\":490:514   */\n      tag_27\n        /* \"#utility.yul\":508:513   */\n      dup2\n        /* \"#utility.yul\":490:514   */\n      tag_15\n      jump\t// in\n    tag_27:\n        /* \"#utility.yul\":483:488   */\n      dup2\n        /* \"#utility.yul\":480:515   */\n      eq\n        /* \"#utility.yul\":470:533   */\n      tag_28\n      jumpi\n        /* \"#utility.yul\":529:530   */\n      0x00\n        /* \"#utility.yul\":526:527   */\n      dup1\n        /* \"#utility.yul\":519:531   */\n      revert\n        /* \"#utility.yul\":470:533   */\n    tag_28:\n        /* \"#utility.yul\":417:539   */\n      pop\n      jump\t// out\n        /* \"#utility.yul\":545:684   */\n    tag_17:\n        /* \"#utility.yul\":591:596   */\n      0x00\n        /* \"#utility.yul\":629:635   */\n      dup2\n        /* \"#utility.yul\":616:636   */\n      calldataload\n        /* \"#utility.yul\":607:636   */\n      swap1\n      pop\n        /* \"#utility.yul\":645:678   */\n      tag_30\n        /* \"#utility.yul\":672:677   */\n      dup2\n        /* \"#utility.yul\":645:678   */\n      tag_16\n      jump\t// in\n    tag_30:\n        /* \"#utility.yul\":545:684   */\n      swap3\n      swap2\n      pop\n      pop\n      jump\t// out\n        /* \"#utility.yul\":690:1164   */\n    tag_6:\n        /* \"#utility.yul\":758:764   */\n      0x00\n        /* \"#utility.yul\":766:772   */\n      dup1\n        /* \"#utility.yul\":815:817   */\n      0x40\n        /* \"#utility.yul\":803:812   */\n      dup4\n        /* \"#utility.yul\":794:801   */\n      dup6\n        /* \"#utility.yul\":790:813   */\n      sub\n        /* \"#utility.yul\":786:818   */\n      slt\n        /* \"#utility.yul\":783:902   */\n      iszero\n      tag_32\n      jumpi\n        /* \"#utility.yul\":821:900   */\n      tag_33\n      tag_13\n      jump\t// in\n    tag_33:\n        /* \"#utility.yul\":783:902   */\n    tag_32:\n        /* \"#utility.yul\":941:942   */\n      0x00\n        /* \"#utility.yul\":966:1019   */\n      tag_34\n        /* \"#utility.yul\":1011:1018   */\n      dup6\n        /* \"#utility.yul\":1002:1008   */\n      dup3\n        /* \"#utility.yul\":991:1000   */\n      dup7\n        /* \"#utility.yul\":987:1009   */\n      add\n        /* \"#utility.yul\":966:1019   */\n      tag_17\n      jump\t// in\n    tag_34:\n        /* \"#utility.yul\":956:1019   */\n      swap3\n      pop\n        /* \"#utility.yul\":912:1029   */\n      pop\n        /* \"#utility.yul\":1068:1070   */\n      0x20\n        /* \"#utility.yul\":1094:1147   */\n      tag_35\n        /* \"#utility.yul\":1139:1146   */\n      dup6\n        /* \"#utility.yul\":1130:1136   */\n      dup3\n        /* \"#utility.yul\":1119:1128   */\n      dup7\n        /* \"#utility.yul\":1115:1137   */\n      add\n        /* \"#utility.yul\":1094:1147   */\n      tag_17\n      jump\t// in\n    tag_35:\n        /* \"#utility.yul\":1084:1147   */\n      swap2\n      pop\n        /* \"#utility.yul\":1039:1157   */\n      pop\n        /* \"#utility.yul\":690:1164   */\n      swap3\n      pop\n      swap3\n      swap1\n      pop\n      jump\t// out\n        /* \"#utility.yul\":1170:1339   */\n    tag_18:\n        /* \"#utility.yul\":1254:1265   */\n      0x00\n        /* \"#utility.yul\":1288:1294   */\n      dup3\n        /* \"#utility.yul\":1283:1286   */\n      dup3\n        /* \"#utility.yul\":1276:1295   */\n      mstore\n        /* \"#utility.yul\":1328:1332   */\n      0x20\n        /* \"#utility.yul\":1323:1326   */\n      dup3\n        /* \"#utility.yul\":1319:1333   */\n      add\n        /* \"#utility.yul\":1304:1333   */\n      swap1\n      pop\n        /* \"#utility.yul\":1170:1339   */\n      swap3\n      swap2\n      pop\n      pop\n      jump\t// out\n        /* \"#utility.yul\":1345:1567   */\n    tag_19:\n        /* \"#utility.yul\":1485:1519   */\n      0x596f752063616e2774207370656e64206d6f7265207468616e20796f75206861\n        /* \"#utility.yul\":1481:1482   */\n      0x00\n        /* \"#utility.yul\":1473:1479   */\n      dup3\n        /* \"#utility.yul\":1469:1483   */\n      add\n        /* \"#utility.yul\":1462:1520   */\n      mstore\n        /* \"#utility.yul\":1554:1559   */\n      0x76652e0000000000000000000000000000000000000000000000000000000000\n        /* \"#utility.yul\":1549:1551   */\n      0x20\n        /* \"#utility.yul\":1541:1547   */\n      dup3\n        /* \"#utility.yul\":1537:1552   */\n      add\n        /* \"#utility.yul\":1530:1560   */\n      mstore\n        /* \"#utility.yul\":1345:1567   */\n      pop\n      jump\t// out\n        /* \"#utility.yul\":1573:1939   */\n    tag_20:\n        /* \"#utility.yul\":1715:1718   */\n      0x00\n        /* \"#utility.yul\":1736:1803   */\n      tag_39\n        /* \"#utility.yul\":1800:1802   */\n      0x23\n        /* \"#utility.yul\":1795:1798   */\n      dup4\n        /* \"#utility.yul\":1736:1803   */\n      tag_18\n      jump\t// in\n    tag_39:\n        /* \"#utility.yul\":1729:1803   */\n      swap2\n      pop\n        /* \"#utility.yul\":1812:1905   */\n      tag_40\n        /* \"#utility.yul\":1901:1904   */\n      dup3\n        /* \"#utility.yul\":1812:1905   */\n      tag_19\n      jump\t// in\n    tag_40:\n        /* \"#utility.yul\":1930:1932   */\n      0x40\n        /* \"#utility.yul\":1925:1928   */\n      dup3\n        /* \"#utility.yul\":1921:1933   */\n      add\n        /* \"#utility.yul\":1914:1933   */\n      swap1\n      pop\n        /* \"#utility.yul\":1573:1939   */\n      swap2\n      swap1\n      pop\n      jump\t// out\n        /* \"#utility.yul\":1945:2364   */\n    tag_11:\n        /* \"#utility.yul\":2111:2115   */\n      0x00\n        /* \"#utility.yul\":2149:2151   */\n      0x20\n        /* \"#utility.yul\":2138:2147   */\n      dup3\n        /* \"#utility.yul\":2134:2152   */\n      add\n        /* \"#utility.yul\":2126:2152   */\n      swap1\n      pop\n        /* \"#utility.yul\":2198:2207   */\n      dup2\n        /* \"#utility.yul\":2192:2196   */\n      dup2\n        /* \"#utility.yul\":2188:2208   */\n      sub\n        /* \"#utility.yul\":2184:2185   */\n      0x00\n        /* \"#utility.yul\":2173:2182   */\n      dup4\n        /* \"#utility.yul\":2169:2186   */\n      add\n        /* \"#utility.yul\":2162:2209   */\n      mstore\n        /* \"#utility.yul\":2226:2357   */\n      tag_42\n        /* \"#utility.yul\":2352:2356   */\n      dup2\n        /* \"#utility.yul\":2226:2357   */\n      tag_20\n      jump\t// in\n    tag_42:\n        /* \"#utility.yul\":2218:2357   */\n      swap1\n      pop\n        /* \"#utility.yul\":1945:2364   */\n      swap2\n      swap1\n      pop\n      jump\t// out\n\n    auxdata: 0xa2646970667358221220582868d0813d40dba9b1284420cd9eadda34283a78ebc7d93d0a7f7bf78f1f8664736f6c63430008120033\n}\n",
				"bytecode": {
					"linkReferences": {},
					"object": "608060405234801561001057600080fd5b506101e7806100206000396000f3fe608060405234801561001057600080fd5b506004361061002b5760003560e01c8063bd52634714610030575b600080fd5b61004a600480360381019061004591906100ce565b61004c565b005b8082111561008f576040517f08c379a000000000000000000000000000000000000000000000000000000000815260040161008690610191565b60405180910390fd5b5050565b600080fd5b6000819050919050565b6100ab81610098565b81146100b657600080fd5b50565b6000813590506100c8816100a2565b92915050565b600080604083850312156100e5576100e4610093565b5b60006100f3858286016100b9565b9250506020610104858286016100b9565b9150509250929050565b600082825260208201905092915050565b7f596f752063616e2774207370656e64206d6f7265207468616e20796f7520686160008201527f76652e0000000000000000000000000000000000000000000000000000000000602082015250565b600061017b60238361010e565b91506101868261011f565b604082019050919050565b600060208201905081810360008301526101aa8161016e565b905091905056fea2646970667358221220582868d0813d40dba9b1284420cd9eadda34283a78ebc7d93d0a7f7bf78f1f8664736f6c63430008120033",
					"opcodes": "PUSH1 0x80 PUSH1 0x40 MSTORE CALLVALUE DUP1 ISZERO PUSH2 0x10 JUMPI PUSH1 0x0 DUP1 REVERT JUMPDEST POP PUSH2 0x1E7 DUP1 PUSH2 0x20 PUSH1 0x0 CODECOPY PUSH1 0x0 RETURN INVALID PUSH1 0x80 PUSH1 0x40 MSTORE CALLVALUE DUP1 ISZERO PUSH2 0x10 JUMPI PUSH1 0x0 DUP1 REVERT JUMPDEST POP PUSH1 0x4 CALLDATASIZE LT PUSH2 0x2B JUMPI PUSH1 0x0 CALLDATALOAD PUSH1 0xE0 SHR DUP1 PUSH4 0xBD526347 EQ PUSH2 0x30 JUMPI JUMPDEST PUSH1 0x0 DUP1 REVERT JUMPDEST PUSH2 0x4A PUSH1 0x4 DUP1 CALLDATASIZE SUB DUP2 ADD SWAP1 PUSH2 0x45 SWAP2 SWAP1 PUSH2 0xCE JUMP JUMPDEST PUSH2 0x4C JUMP JUMPDEST STOP JUMPDEST DUP1 DUP3 GT ISZERO PUSH2 0x8F JUMPI PUSH1 0x40 MLOAD PUSH32 0x8C379A000000000000000000000000000000000000000000000000000000000 DUP2 MSTORE PUSH1 0x4 ADD PUSH2 0x86 SWAP1 PUSH2 0x191 JUMP JUMPDEST PUSH1 0x40 MLOAD DUP1 SWAP2 SUB SWAP1 REVERT JUMPDEST POP POP JUMP JUMPDEST PUSH1 0x0 DUP1 REVERT JUMPDEST PUSH1 0x0 DUP2 SWAP1 POP SWAP2 SWAP1 POP JUMP JUMPDEST PUSH2 0xAB DUP2 PUSH2 0x98 JUMP JUMPDEST DUP2 EQ PUSH2 0xB6 JUMPI PUSH1 0x0 DUP1 REVERT JUMPDEST POP JUMP JUMPDEST PUSH1 0x0 DUP2 CALLDATALOAD SWAP1 POP PUSH2 0xC8 DUP2 PUSH2 0xA2 JUMP JUMPDEST SWAP3 SWAP2 POP POP JUMP JUMPDEST PUSH1 0x0 DUP1 PUSH1 0x40 DUP4 DUP6 SUB SLT ISZERO PUSH2 0xE5 JUMPI PUSH2 0xE4 PUSH2 0x93 JUMP JUMPDEST JUMPDEST PUSH1 0x0 PUSH2 0xF3 DUP6 DUP3 DUP7 ADD PUSH2 0xB9 JUMP JUMPDEST SWAP3 POP POP PUSH1 0x20 PUSH2 0x104 DUP6 DUP3 DUP7 ADD PUSH2 0xB9 JUMP JUMPDEST SWAP2 POP POP SWAP3 POP SWAP3 SWAP1 POP JUMP JUMPDEST PUSH1 0x0 DUP3 DUP3 MSTORE PUSH1 0x20 DUP3 ADD SWAP1 POP SWAP3 SWAP2 POP POP JUMP JUMPDEST PUSH32 0x596F752063616E2774207370656E64206D6F7265207468616E20796F75206861 PUSH1 0x0 DUP3 ADD MSTORE PUSH32 0x76652E0000000000000000000000000000000000000000000000000000000000 PUSH1 0x20 DUP3 ADD MSTORE POP JUMP JUMPDEST PUSH1 0x0 PUSH2 0x17B PUSH1 0x23 DUP4 PUSH2 0x10E JUMP JUMPDEST SWAP2 POP PUSH2 0x186 DUP3 PUSH2 0x11F JUMP JUMPDEST PUSH1 0x40 DUP3 ADD SWAP1 POP SWAP2 SWAP1 POP JUMP JUMPDEST PUSH1 0x0 PUSH1 0x20 DUP3 ADD SWAP1 POP DUP2 DUP2 SUB PUSH1 0x0 DUP4 ADD MSTORE PUSH2 0x1AA DUP2 PUSH2 0x16E JUMP JUMPDEST SWAP1 POP SWAP2 SWAP1 POP JUMP INVALID LOG2 PUSH5 0x6970667358 0x22 SLT KECCAK256 PC 0x28 PUSH9 0xD0813D40DBA9B12844 KECCAK256 0xCD SWAP15 0xAD 0xDA CALLVALUE 0x28 GASPRICE PUSH25 0xEBC7D93D0A7F7BF78F1F8664736F6C63430008120033000000 "
				},
				"gasEstimates": {
					"creation": {
						"codeDepositCost": "97400",
						"executionCost": "147",
						"totalCost": "97547"
					},
					"external": {
						"enoughBalance(uint256,uint256)": "infinite"
					}
				},
				"methodIdentifiers": {
					"enoughBalance(uint256,uint256)": "bd526347"
				}
			},
			"storageLayout": {
				"storage": [],
				"types": null
			},
			"userdoc": {
				"kind": "user",
				"methods": {},
				"version": 1
			}
		}
	}
}