{
	"contracts/Smart_Wallet_Final/Balance_And_Amount.sol": {
		"BalanceAndAmount": {
			"abi": [
				{
					"inputs": [
						{
							"internalType": "uint256",
							"name": "amount",
							"type": "uint256"
						},
						{
							"internalType": "uint256",
							"name": "senderBalance",
							"type": "uint256"
						}
					],
					"name": "amountController",
					"outputs": [],
					"stateMutability": "pure",
					"type": "function"
				}
			],
			"devdoc": {
				"kind": "dev",
				"methods": {},
				"version": 1
			},
			"evm": {
				"assembly": "    /* \"contracts/Smart_Wallet_Final/Balance_And_Amount.sol\":60:324  contract BalanceAndAmount {... */\n  mstore(0x40, 0x80)\n  callvalue\n  dup1\n  iszero\n  tag_1\n  jumpi\n  0x00\n  dup1\n  revert\ntag_1:\n  pop\n  dataSize(sub_0)\n  dup1\n  dataOffset(sub_0)\n  0x00\n  codecopy\n  0x00\n  return\nstop\n\nsub_0: assembly {\n        /* \"contracts/Smart_Wallet_Final/Balance_And_Amount.sol\":60:324  contract BalanceAndAmount {... */\n      mstore(0x40, 0x80)\n      callvalue\n      dup1\n      iszero\n      tag_1\n      jumpi\n      0x00\n      dup1\n      revert\n    tag_1:\n      pop\n      jumpi(tag_2, lt(calldatasize, 0x04))\n      shr(0xe0, calldataload(0x00))\n      dup1\n      0x851de467\n      eq\n      tag_3\n      jumpi\n    tag_2:\n      0x00\n      dup1\n      revert\n        /* \"contracts/Smart_Wallet_Final/Balance_And_Amount.sol\":95:321  function amountController(uint amount, uint senderBalance) external pure {... */\n    tag_3:\n      tag_4\n      0x04\n      dup1\n      calldatasize\n      sub\n      dup2\n      add\n      swap1\n      tag_5\n      swap2\n      swap1\n      tag_6\n      jump\t// in\n    tag_5:\n      tag_7\n      jump\t// in\n    tag_4:\n      stop\n    tag_7:\n        /* \"contracts/Smart_Wallet_Final/Balance_And_Amount.sol\":197:210  senderBalance */\n      dup1\n        /* \"contracts/Smart_Wallet_Final/Balance_And_Amount.sol\":187:193  amount */\n      dup3\n        /* \"contracts/Smart_Wallet_Final/Balance_And_Amount.sol\":187:210  amount <= senderBalance */\n      gt\n      iszero\n        /* \"contracts/Smart_Wallet_Final/Balance_And_Amount.sol\":179:250  require(amount <= senderBalance, \"You can't spend more than you have.\") */\n      tag_9\n      jumpi\n      mload(0x40)\n      0x08c379a000000000000000000000000000000000000000000000000000000000\n      dup2\n      mstore\n      0x04\n      add\n      tag_10\n      swap1\n      tag_11\n      jump\t// in\n    tag_10:\n      mload(0x40)\n      dup1\n      swap2\n      sub\n      swap1\n      revert\n    tag_9:\n        /* \"contracts/Smart_Wallet_Final/Balance_And_Amount.sol\":278:279  0 */\n      0x00\n        /* \"contracts/Smart_Wallet_Final/Balance_And_Amount.sol\":269:275  amount */\n      dup3\n        /* \"contracts/Smart_Wallet_Final/Balance_And_Amount.sol\":269:279  amount > 0 */\n      gt\n        /* \"contracts/Smart_Wallet_Final/Balance_And_Amount.sol\":261:313  require(amount > 0, \"Amount has to be more than 0.\") */\n      tag_12\n      jumpi\n      mload(0x40)\n      0x08c379a000000000000000000000000000000000000000000000000000000000\n      dup2\n      mstore\n      0x04\n      add\n      tag_13\n      swap1\n      tag_14\n      jump\t// in\n    tag_13:\n      mload(0x40)\n      dup1\n      swap2\n      sub\n      swap1\n      revert\n    tag_12:\n        /* \"contracts/Smart_Wallet_Final/Balance_And_Amount.sol\":95:321  function amountController(uint amount, uint senderBalance) external pure {... */\n      pop\n      pop\n      jump\t// out\n        /* \"#utility.yul\":88:205   */\n    tag_16:\n        /* \"#utility.yul\":197:198   */\n      0x00\n        /* \"#utility.yul\":194:195   */\n      dup1\n        /* \"#utility.yul\":187:199   */\n      revert\n        /* \"#utility.yul\":334:411   */\n    tag_18:\n        /* \"#utility.yul\":371:378   */\n      0x00\n        /* \"#utility.yul\":400:405   */\n      dup2\n        /* \"#utility.yul\":389:405   */\n      swap1\n      pop\n        /* \"#utility.yul\":334:411   */\n      swap2\n      swap1\n      pop\n      jump\t// out\n        /* \"#utility.yul\":417:539   */\n    tag_19:\n        /* \"#utility.yul\":490:514   */\n      tag_32\n        /* \"#utility.yul\":508:513   */\n      dup2\n        /* \"#utility.yul\":490:514   */\n      tag_18\n      jump\t// in\n    tag_32:\n        /* \"#utility.yul\":483:488   */\n      dup2\n        /* \"#utility.yul\":480:515   */\n      eq\n        /* \"#utility.yul\":470:533   */\n      tag_33\n      jumpi\n        /* \"#utility.yul\":529:530   */\n      0x00\n        /* \"#utility.yul\":526:527   */\n      dup1\n        /* \"#utility.yul\":519:531   */\n      revert\n        /* \"#utility.yul\":470:533   */\n    tag_33:\n        /* \"#utility.yul\":417:539   */\n      pop\n      jump\t// out\n        /* \"#utility.yul\":545:684   */\n    tag_20:\n        /* \"#utility.yul\":591:596   */\n      0x00\n        /* \"#utility.yul\":629:635   */\n      dup2\n        /* \"#utility.yul\":616:636   */\n      calldataload\n        /* \"#utility.yul\":607:636   */\n      swap1\n      pop\n        /* \"#utility.yul\":645:678   */\n      tag_35\n        /* \"#utility.yul\":672:677   */\n      dup2\n        /* \"#utility.yul\":645:678   */\n      tag_19\n      jump\t// in\n    tag_35:\n        /* \"#utility.yul\":545:684   */\n      swap3\n      swap2\n      pop\n      pop\n      jump\t// out\n        /* \"#utility.yul\":690:1164   */\n    tag_6:\n        /* \"#utility.yul\":758:764   */\n      0x00\n        /* \"#utility.yul\":766:772   */\n      dup1\n        /* \"#utility.yul\":815:817   */\n      0x40\n        /* \"#utility.yul\":803:812   */\n      dup4\n        /* \"#utility.yul\":794:801   */\n      dup6\n        /* \"#utility.yul\":790:813   */\n      sub\n        /* \"#utility.yul\":786:818   */\n      slt\n        /* \"#utility.yul\":783:902   */\n      iszero\n      tag_37\n      jumpi\n        /* \"#utility.yul\":821:900   */\n      tag_38\n      tag_16\n      jump\t// in\n    tag_38:\n        /* \"#utility.yul\":783:902   */\n    tag_37:\n        /* \"#utility.yul\":941:942   */\n      0x00\n        /* \"#utility.yul\":966:1019   */\n      tag_39\n        /* \"#utility.yul\":1011:1018   */\n      dup6\n        /* \"#utility.yul\":1002:1008   */\n      dup3\n        /* \"#utility.yul\":991:1000   */\n      dup7\n        /* \"#utility.yul\":987:1009   */\n      add\n        /* \"#utility.yul\":966:1019   */\n      tag_20\n      jump\t// in\n    tag_39:\n        /* \"#utility.yul\":956:1019   */\n      swap3\n      pop\n        /* \"#utility.yul\":912:1029   */\n      pop\n        /* \"#utility.yul\":1068:1070   */\n      0x20\n        /* \"#utility.yul\":1094:1147   */\n      tag_40\n        /* \"#utility.yul\":1139:1146   */\n      dup6\n        /* \"#utility.yul\":1130:1136   */\n      dup3\n        /* \"#utility.yul\":1119:1128   */\n      dup7\n        /* \"#utility.yul\":1115:1137   */\n      add\n        /* \"#utility.yul\":1094:1147   */\n      tag_20\n      jump\t// in\n    tag_40:\n        /* \"#utility.yul\":1084:1147   */\n      swap2\n      pop\n        /* \"#utility.yul\":1039:1157   */\n      pop\n        /* \"#utility.yul\":690:1164   */\n      swap3\n      pop\n      swap3\n      swap1\n      pop\n      jump\t// out\n        /* \"#utility.yul\":1170:1339   */\n    tag_21:\n        /* \"#utility.yul\":1254:1265   */\n      0x00\n        /* \"#utility.yul\":1288:1294   */\n      dup3\n        /* \"#utility.yul\":1283:1286   */\n      dup3\n        /* \"#utility.yul\":1276:1295   */\n      mstore\n        /* \"#utility.yul\":1328:1332   */\n      0x20\n        /* \"#utility.yul\":1323:1326   */\n      dup3\n        /* \"#utility.yul\":1319:1333   */\n      add\n        /* \"#utility.yul\":1304:1333   */\n      swap1\n      pop\n        /* \"#utility.yul\":1170:1339   */\n      swap3\n      swap2\n      pop\n      pop\n      jump\t// out\n        /* \"#utility.yul\":1345:1567   */\n    tag_22:\n        /* \"#utility.yul\":1485:1519   */\n      0x596f752063616e2774207370656e64206d6f7265207468616e20796f75206861\n        /* \"#utility.yul\":1481:1482   */\n      0x00\n        /* \"#utility.yul\":1473:1479   */\n      dup3\n        /* \"#utility.yul\":1469:1483   */\n      add\n        /* \"#utility.yul\":1462:1520   */\n      mstore\n        /* \"#utility.yul\":1554:1559   */\n      0x76652e0000000000000000000000000000000000000000000000000000000000\n        /* \"#utility.yul\":1549:1551   */\n      0x20\n        /* \"#utility.yul\":1541:1547   */\n      dup3\n        /* \"#utility.yul\":1537:1552   */\n      add\n        /* \"#utility.yul\":1530:1560   */\n      mstore\n        /* \"#utility.yul\":1345:1567   */\n      pop\n      jump\t// out\n        /* \"#utility.yul\":1573:1939   */\n    tag_23:\n        /* \"#utility.yul\":1715:1718   */\n      0x00\n        /* \"#utility.yul\":1736:1803   */\n      tag_44\n        /* \"#utility.yul\":1800:1802   */\n      0x23\n        /* \"#utility.yul\":1795:1798   */\n      dup4\n        /* \"#utility.yul\":1736:1803   */\n      tag_21\n      jump\t// in\n    tag_44:\n        /* \"#utility.yul\":1729:1803   */\n      swap2\n      pop\n        /* \"#utility.yul\":1812:1905   */\n      tag_45\n        /* \"#utility.yul\":1901:1904   */\n      dup3\n        /* \"#utility.yul\":1812:1905   */\n      tag_22\n      jump\t// in\n    tag_45:\n        /* \"#utility.yul\":1930:1932   */\n      0x40\n        /* \"#utility.yul\":1925:1928   */\n      dup3\n        /* \"#utility.yul\":1921:1933   */\n      add\n        /* \"#utility.yul\":1914:1933   */\n      swap1\n      pop\n        /* \"#utility.yul\":1573:1939   */\n      swap2\n      swap1\n      pop\n      jump\t// out\n        /* \"#utility.yul\":1945:2364   */\n    tag_11:\n        /* \"#utility.yul\":2111:2115   */\n      0x00\n        /* \"#utility.yul\":2149:2151   */\n      0x20\n        /* \"#utility.yul\":2138:2147   */\n      dup3\n        /* \"#utility.yul\":2134:2152   */\n      add\n        /* \"#utility.yul\":2126:2152   */\n      swap1\n      pop\n        /* \"#utility.yul\":2198:2207   */\n      dup2\n        /* \"#utility.yul\":2192:2196   */\n      dup2\n        /* \"#utility.yul\":2188:2208   */\n      sub\n        /* \"#utility.yul\":2184:2185   */\n      0x00\n        /* \"#utility.yul\":2173:2182   */\n      dup4\n        /* \"#utility.yul\":2169:2186   */\n      add\n        /* \"#utility.yul\":2162:2209   */\n      mstore\n        /* \"#utility.yul\":2226:2357   */\n      tag_47\n        /* \"#utility.yul\":2352:2356   */\n      dup2\n        /* \"#utility.yul\":2226:2357   */\n      tag_23\n      jump\t// in\n    tag_47:\n        /* \"#utility.yul\":2218:2357   */\n      swap1\n      pop\n        /* \"#utility.yul\":1945:2364   */\n      swap2\n      swap1\n      pop\n      jump\t// out\n        /* \"#utility.yul\":2370:2549   */\n    tag_24:\n        /* \"#utility.yul\":2510:2541   */\n      0x416d6f756e742068617320746f206265206d6f7265207468616e20302e000000\n        /* \"#utility.yul\":2506:2507   */\n      0x00\n        /* \"#utility.yul\":2498:2504   */\n      dup3\n        /* \"#utility.yul\":2494:2508   */\n      add\n        /* \"#utility.yul\":2487:2542   */\n      mstore\n        /* \"#utility.yul\":2370:2549   */\n      pop\n      jump\t// out\n        /* \"#utility.yul\":2555:2921   */\n    tag_25:\n        /* \"#utility.yul\":2697:2700   */\n      0x00\n        /* \"#utility.yul\":2718:2785   */\n      tag_50\n        /* \"#utility.yul\":2782:2784   */\n      0x1d\n        /* \"#utility.yul\":2777:2780   */\n      dup4\n        /* \"#utility.yul\":2718:2785   */\n      tag_21\n      jump\t// in\n    tag_50:\n        /* \"#utility.yul\":2711:2785   */\n      swap2\n      pop\n        /* \"#utility.yul\":2794:2887   */\n      tag_51\n        /* \"#utility.yul\":2883:2886   */\n      dup3\n        /* \"#utility.yul\":2794:2887   */\n      tag_24\n      jump\t// in\n    tag_51:\n        /* \"#utility.yul\":2912:2914   */\n      0x20\n        /* \"#utility.yul\":2907:2910   */\n      dup3\n        /* \"#utility.yul\":2903:2915   */\n      add\n        /* \"#utility.yul\":2896:2915   */\n      swap1\n      pop\n        /* \"#utility.yul\":2555:2921   */\n      swap2\n      swap1\n      pop\n      jump\t// out\n        /* \"#utility.yul\":2927:3346   */\n    tag_14:\n        /* \"#utility.yul\":3093:3097   */\n      0x00\n        /* \"#utility.yul\":3131:3133   */\n      0x20\n        /* \"#utility.yul\":3120:3129   */\n      dup3\n        /* \"#utility.yul\":3116:3134   */\n      add\n        /* \"#utility.yul\":3108:3134   */\n      swap1\n      pop\n        /* \"#utility.yul\":3180:3189   */\n      dup2\n        /* \"#utility.yul\":3174:3178   */\n      dup2\n        /* \"#utility.yul\":3170:3190   */\n      sub\n        /* \"#utility.yul\":3166:3167   */\n      0x00\n        /* \"#utility.yul\":3155:3164   */\n      dup4\n        /* \"#utility.yul\":3151:3168   */\n      add\n        /* \"#utility.yul\":3144:3191   */\n      mstore\n        /* \"#utility.yul\":3208:3339   */\n      tag_53\n        /* \"#utility.yul\":3334:3338   */\n      dup2\n        /* \"#utility.yul\":3208:3339   */\n      tag_25\n      jump\t// in\n    tag_53:\n        /* \"#utility.yul\":3200:3339   */\n      swap1\n      pop\n        /* \"#utility.yul\":2927:3346   */\n      swap2\n      swap1\n      pop\n      jump\t// out\n\n    auxdata: 0xa26469706673582212200c8117a76e2cefbfe628c673f5709979cd2d7ef516610aebedc6d475bd7a616564736f6c63430008120033\n}\n",
				"bytecode": {
					"linkReferences": {},
					"object": "608060405234801561001057600080fd5b50610296806100206000396000f3fe608060405234801561001057600080fd5b506004361061002b5760003560e01c8063851de46714610030575b600080fd5b61004a60048036038101906100459190610111565b61004c565b005b8082111561008f576040517f08c379a0000000000000000000000000000000000000000000000000000000008152600401610086906101d4565b60405180910390fd5b600082116100d2576040517f08c379a00000000000000000000000000000000000000000000000000000000081526004016100c990610240565b60405180910390fd5b5050565b600080fd5b6000819050919050565b6100ee816100db565b81146100f957600080fd5b50565b60008135905061010b816100e5565b92915050565b60008060408385031215610128576101276100d6565b5b6000610136858286016100fc565b9250506020610147858286016100fc565b9150509250929050565b600082825260208201905092915050565b7f596f752063616e2774207370656e64206d6f7265207468616e20796f7520686160008201527f76652e0000000000000000000000000000000000000000000000000000000000602082015250565b60006101be602383610151565b91506101c982610162565b604082019050919050565b600060208201905081810360008301526101ed816101b1565b9050919050565b7f416d6f756e742068617320746f206265206d6f7265207468616e20302e000000600082015250565b600061022a601d83610151565b9150610235826101f4565b602082019050919050565b600060208201905081810360008301526102598161021d565b905091905056fea26469706673582212200c8117a76e2cefbfe628c673f5709979cd2d7ef516610aebedc6d475bd7a616564736f6c63430008120033",
					"opcodes": "PUSH1 0x80 PUSH1 0x40 MSTORE CALLVALUE DUP1 ISZERO PUSH2 0x10 JUMPI PUSH1 0x0 DUP1 REVERT JUMPDEST POP PUSH2 0x296 DUP1 PUSH2 0x20 PUSH1 0x0 CODECOPY PUSH1 0x0 RETURN INVALID PUSH1 0x80 PUSH1 0x40 MSTORE CALLVALUE DUP1 ISZERO PUSH2 0x10 JUMPI PUSH1 0x0 DUP1 REVERT JUMPDEST POP PUSH1 0x4 CALLDATASIZE LT PUSH2 0x2B JUMPI PUSH1 0x0 CALLDATALOAD PUSH1 0xE0 SHR DUP1 PUSH4 0x851DE467 EQ PUSH2 0x30 JUMPI JUMPDEST PUSH1 0x0 DUP1 REVERT JUMPDEST PUSH2 0x4A PUSH1 0x4 DUP1 CALLDATASIZE SUB DUP2 ADD SWAP1 PUSH2 0x45 SWAP2 SWAP1 PUSH2 0x111 JUMP JUMPDEST PUSH2 0x4C JUMP JUMPDEST STOP JUMPDEST DUP1 DUP3 GT ISZERO PUSH2 0x8F JUMPI PUSH1 0x40 MLOAD PUSH32 0x8C379A000000000000000000000000000000000000000000000000000000000 DUP2 MSTORE PUSH1 0x4 ADD PUSH2 0x86 SWAP1 PUSH2 0x1D4 JUMP JUMPDEST PUSH1 0x40 MLOAD DUP1 SWAP2 SUB SWAP1 REVERT JUMPDEST PUSH1 0x0 DUP3 GT PUSH2 0xD2 JUMPI PUSH1 0x40 MLOAD PUSH32 0x8C379A000000000000000000000000000000000000000000000000000000000 DUP2 MSTORE PUSH1 0x4 ADD PUSH2 0xC9 SWAP1 PUSH2 0x240 JUMP JUMPDEST PUSH1 0x40 MLOAD DUP1 SWAP2 SUB SWAP1 REVERT JUMPDEST POP POP JUMP JUMPDEST PUSH1 0x0 DUP1 REVERT JUMPDEST PUSH1 0x0 DUP2 SWAP1 POP SWAP2 SWAP1 POP JUMP JUMPDEST PUSH2 0xEE DUP2 PUSH2 0xDB JUMP JUMPDEST DUP2 EQ PUSH2 0xF9 JUMPI PUSH1 0x0 DUP1 REVERT JUMPDEST POP JUMP JUMPDEST PUSH1 0x0 DUP2 CALLDATALOAD SWAP1 POP PUSH2 0x10B DUP2 PUSH2 0xE5 JUMP JUMPDEST SWAP3 SWAP2 POP POP JUMP JUMPDEST PUSH1 0x0 DUP1 PUSH1 0x40 DUP4 DUP6 SUB SLT ISZERO PUSH2 0x128 JUMPI PUSH2 0x127 PUSH2 0xD6 JUMP JUMPDEST JUMPDEST PUSH1 0x0 PUSH2 0x136 DUP6 DUP3 DUP7 ADD PUSH2 0xFC JUMP JUMPDEST SWAP3 POP POP PUSH1 0x20 PUSH2 0x147 DUP6 DUP3 DUP7 ADD PUSH2 0xFC JUMP JUMPDEST SWAP2 POP POP SWAP3 POP SWAP3 SWAP1 POP JUMP JUMPDEST PUSH1 0x0 DUP3 DUP3 MSTORE PUSH1 0x20 DUP3 ADD SWAP1 POP SWAP3 SWAP2 POP POP JUMP JUMPDEST PUSH32 0x596F752063616E2774207370656E64206D6F7265207468616E20796F75206861 PUSH1 0x0 DUP3 ADD MSTORE PUSH32 0x76652E0000000000000000000000000000000000000000000000000000000000 PUSH1 0x20 DUP3 ADD MSTORE POP JUMP JUMPDEST PUSH1 0x0 PUSH2 0x1BE PUSH1 0x23 DUP4 PUSH2 0x151 JUMP JUMPDEST SWAP2 POP PUSH2 0x1C9 DUP3 PUSH2 0x162 JUMP JUMPDEST PUSH1 0x40 DUP3 ADD SWAP1 POP SWAP2 SWAP1 POP JUMP JUMPDEST PUSH1 0x0 PUSH1 0x20 DUP3 ADD SWAP1 POP DUP2 DUP2 SUB PUSH1 0x0 DUP4 ADD MSTORE PUSH2 0x1ED DUP2 PUSH2 0x1B1 JUMP JUMPDEST SWAP1 POP SWAP2 SWAP1 POP JUMP JUMPDEST PUSH32 0x416D6F756E742068617320746F206265206D6F7265207468616E20302E000000 PUSH1 0x0 DUP3 ADD MSTORE POP JUMP JUMPDEST PUSH1 0x0 PUSH2 0x22A PUSH1 0x1D DUP4 PUSH2 0x151 JUMP JUMPDEST SWAP2 POP PUSH2 0x235 DUP3 PUSH2 0x1F4 JUMP JUMPDEST PUSH1 0x20 DUP3 ADD SWAP1 POP SWAP2 SWAP1 POP JUMP JUMPDEST PUSH1 0x0 PUSH1 0x20 DUP3 ADD SWAP1 POP DUP2 DUP2 SUB PUSH1 0x0 DUP4 ADD MSTORE PUSH2 0x259 DUP2 PUSH2 0x21D JUMP JUMPDEST SWAP1 POP SWAP2 SWAP1 POP JUMP INVALID LOG2 PUSH5 0x6970667358 0x22 SLT KECCAK256 0xC DUP2 OR 0xA7 PUSH15 0x2CEFBFE628C673F5709979CD2D7EF5 AND PUSH2 0xAEB 0xED 0xC6 0xD4 PUSH22 0xBD7A616564736F6C6343000812003300000000000000 "
				},
				"gasEstimates": {
					"creation": {
						"codeDepositCost": "132400",
						"executionCost": "177",
						"totalCost": "132577"
					},
					"external": {
						"amountController(uint256,uint256)": "infinite"
					}
				},
				"methodIdentifiers": {
					"amountController(uint256,uint256)": "851de467"
				}
			},
			"storageLayout": {
				"storage": [],
				"types": null
			},
			"userdoc": {
				"kind": "user",
				"methods": {},
				"version": 1
			}
		}
	}
}